{
  "address": "0x8373137DE3A421C8F3AD55D964Cf019fd28375A8",
  "abi": [
    {
      "anonymous": false,
      "inputs": [
        {
          "indexed": true,
          "internalType": "uint256",
          "name": "auctionId",
          "type": "uint256"
        },
        {
          "indexed": true,
          "internalType": "address",
          "name": "uToken",
          "type": "address"
        },
        {
          "indexed": false,
          "internalType": "uint256",
          "name": "nftIndexForUToken",
          "type": "uint256"
        },
        {
          "indexed": false,
          "internalType": "uint256",
          "name": "startTime",
          "type": "uint256"
        },
        {
          "indexed": true,
          "internalType": "uint256",
          "name": "endTime",
          "type": "uint256"
        }
      ],
      "name": "AuctionCreated",
      "type": "event"
    },
    {
      "anonymous": false,
      "inputs": [
        {
          "indexed": true,
          "internalType": "uint256",
          "name": "auctionId",
          "type": "uint256"
        },
        {
          "indexed": true,
          "internalType": "address",
          "name": "bidder",
          "type": "address"
        },
        {
          "indexed": false,
          "internalType": "uint256",
          "name": "amount",
          "type": "uint256"
        },
        {
          "indexed": true,
          "internalType": "uint256",
          "name": "endTime",
          "type": "uint256"
        }
      ],
      "name": "BidCreated",
      "type": "event"
    },
    {
      "anonymous": false,
      "inputs": [
        {
          "indexed": true,
          "internalType": "uint256",
          "name": "auctionId",
          "type": "uint256"
        },
        {
          "indexed": true,
          "internalType": "address",
          "name": "bidder",
          "type": "address"
        }
      ],
      "name": "BidRemoved",
      "type": "event"
    },
    {
      "anonymous": false,
      "inputs": [
        {
          "indexed": true,
          "internalType": "uint256",
          "name": "auctionId",
          "type": "uint256"
        },
        {
          "indexed": true,
          "internalType": "address",
          "name": "winner",
          "type": "address"
        }
      ],
      "name": "ClaimedNFT",
      "type": "event"
    },
    {
      "anonymous": false,
      "inputs": [
        {
          "indexed": true,
          "internalType": "address",
          "name": "previousOwner",
          "type": "address"
        },
        {
          "indexed": true,
          "internalType": "address",
          "name": "newOwner",
          "type": "address"
        }
      ],
      "name": "OwnershipTransferred",
      "type": "event"
    },
    {
      "inputs": [],
      "name": "auctionExtension",
      "outputs": [
        {
          "internalType": "uint256",
          "name": "",
          "type": "uint256"
        }
      ],
      "stateMutability": "view",
      "type": "function"
    },
    {
      "inputs": [
        {
          "internalType": "address",
          "name": "",
          "type": "address"
        },
        {
          "internalType": "uint256",
          "name": "",
          "type": "uint256"
        }
      ],
      "name": "auctionIndex",
      "outputs": [
        {
          "internalType": "uint256",
          "name": "",
          "type": "uint256"
        }
      ],
      "stateMutability": "view",
      "type": "function"
    },
    {
      "inputs": [
        {
          "internalType": "uint256",
          "name": "",
          "type": "uint256"
        }
      ],
      "name": "auctionInfo",
      "outputs": [
        {
          "internalType": "uint256",
          "name": "startTime",
          "type": "uint256"
        },
        {
          "internalType": "uint256",
          "name": "endTime",
          "type": "uint256"
        },
        {
          "internalType": "address",
          "name": "uToken",
          "type": "address"
        },
        {
          "internalType": "uint256",
          "name": "nftIndexForUToken",
          "type": "uint256"
        },
        {
          "internalType": "bool",
          "name": "claimed",
          "type": "bool"
        }
      ],
      "stateMutability": "view",
      "type": "function"
    },
    {
      "inputs": [],
      "name": "auctionLength",
      "outputs": [
        {
          "internalType": "uint256",
          "name": "",
          "type": "uint256"
        }
      ],
      "stateMutability": "view",
      "type": "function"
    },
    {
      "inputs": [
        {
          "internalType": "address",
          "name": "",
          "type": "address"
        },
        {
          "internalType": "uint256",
          "name": "",
          "type": "uint256"
        }
      ],
      "name": "auctionStarted",
      "outputs": [
        {
          "internalType": "bool",
          "name": "",
          "type": "bool"
        }
      ],
      "stateMutability": "view",
      "type": "function"
    },
    {
      "inputs": [
        {
          "internalType": "uint256",
          "name": "_auctionId",
          "type": "uint256"
        }
      ],
      "name": "bid",
      "outputs": [],
      "stateMutability": "payable",
      "type": "function"
    },
    {
      "inputs": [
        {
          "internalType": "uint256",
          "name": "",
          "type": "uint256"
        },
        {
          "internalType": "address",
          "name": "",
          "type": "address"
        }
      ],
      "name": "bidRefunds",
      "outputs": [
        {
          "internalType": "uint256",
          "name": "",
          "type": "uint256"
        }
      ],
      "stateMutability": "view",
      "type": "function"
    },
    {
      "inputs": [
        {
          "internalType": "uint256",
          "name": "",
          "type": "uint256"
        }
      ],
      "name": "bids",
      "outputs": [
        {
          "internalType": "address",
          "name": "bidder",
          "type": "address"
        },
        {
          "internalType": "uint256",
          "name": "amount",
          "type": "uint256"
        }
      ],
      "stateMutability": "view",
      "type": "function"
    },
    {
      "inputs": [
        {
          "internalType": "address",
          "name": "_uToken",
          "type": "address"
        },
        {
          "internalType": "uint256",
          "name": "_amount",
          "type": "uint256"
        }
      ],
      "name": "burnAndRedeem",
      "outputs": [],
      "stateMutability": "nonpayable",
      "type": "function"
    },
    {
      "inputs": [
        {
          "internalType": "uint256",
          "name": "_auctionId",
          "type": "uint256"
        }
      ],
      "name": "claim",
      "outputs": [],
      "stateMutability": "nonpayable",
      "type": "function"
    },
    {
      "inputs": [],
      "name": "duration",
      "outputs": [
        {
          "internalType": "uint256",
          "name": "",
          "type": "uint256"
        }
      ],
      "stateMutability": "view",
      "type": "function"
    },
    {
      "inputs": [],
      "name": "factory",
      "outputs": [
        {
          "internalType": "address",
          "name": "",
          "type": "address"
        }
      ],
      "stateMutability": "view",
      "type": "function"
    },
    {
      "inputs": [],
      "name": "feeDivisor",
      "outputs": [
        {
          "internalType": "uint8",
          "name": "",
          "type": "uint8"
        }
      ],
      "stateMutability": "view",
      "type": "function"
    },
    {
      "inputs": [],
      "name": "feeTo",
      "outputs": [
        {
          "internalType": "address",
          "name": "",
          "type": "address"
        }
      ],
      "stateMutability": "view",
      "type": "function"
    },
    {
      "inputs": [],
      "name": "feeToSetter",
      "outputs": [
        {
          "internalType": "address",
          "name": "",
          "type": "address"
        }
      ],
      "stateMutability": "view",
      "type": "function"
    },
    {
      "inputs": [
        {
          "internalType": "address",
          "name": "_factory",
          "type": "address"
        },
        {
          "internalType": "uint256",
          "name": "_duration",
          "type": "uint256"
        },
        {
          "internalType": "uint8",
          "name": "_minBidMultiplier",
          "type": "uint8"
        },
        {
          "internalType": "uint256",
          "name": "_auctionExtension",
          "type": "uint256"
        },
        {
          "internalType": "uint8",
          "name": "_feeDivisor",
          "type": "uint8"
        },
        {
          "internalType": "address",
          "name": "_feeToSetter",
          "type": "address"
        },
        {
          "internalType": "address",
          "name": "_feeTo",
          "type": "address"
        }
      ],
      "name": "initialize",
      "outputs": [],
      "stateMutability": "nonpayable",
      "type": "function"
    },
    {
      "inputs": [],
      "name": "minBidMultiplier",
      "outputs": [
        {
          "internalType": "uint8",
          "name": "",
          "type": "uint8"
        }
      ],
      "stateMutability": "view",
      "type": "function"
    },
    {
      "inputs": [
        {
          "internalType": "address",
          "name": "_uToken",
          "type": "address"
        },
        {
          "internalType": "uint256",
          "name": "_nftIndexForUToken",
          "type": "uint256"
        }
      ],
      "name": "newAuction",
      "outputs": [],
      "stateMutability": "payable",
      "type": "function"
    },
    {
      "inputs": [
        {
          "internalType": "address",
          "name": "uToken",
          "type": "address"
        },
        {
          "internalType": "uint256",
          "name": "nftIndexForUToken",
          "type": "uint256"
        }
      ],
      "name": "onAuction",
      "outputs": [
        {
          "internalType": "bool",
          "name": "",
          "type": "bool"
        }
      ],
      "stateMutability": "view",
      "type": "function"
    },
    {
      "inputs": [],
      "name": "owner",
      "outputs": [
        {
          "internalType": "address",
          "name": "",
          "type": "address"
        }
      ],
      "stateMutability": "view",
      "type": "function"
    },
    {
      "inputs": [],
      "name": "renounceOwnership",
      "outputs": [],
      "stateMutability": "nonpayable",
      "type": "function"
    },
    {
      "inputs": [
        {
          "internalType": "uint256",
          "name": "_duration",
          "type": "uint256"
        },
        {
          "internalType": "uint8",
          "name": "_minBidMultiplier",
          "type": "uint8"
        },
        {
          "internalType": "uint256",
          "name": "_auctionExtension",
          "type": "uint256"
        },
        {
          "internalType": "uint8",
          "name": "_feeDivisor",
          "type": "uint8"
        }
      ],
      "name": "setAuctionParameters",
      "outputs": [],
      "stateMutability": "nonpayable",
      "type": "function"
    },
    {
      "inputs": [
        {
          "internalType": "address",
          "name": "_factory",
          "type": "address"
        }
      ],
      "name": "setFactory",
      "outputs": [],
      "stateMutability": "nonpayable",
      "type": "function"
    },
    {
      "inputs": [
        {
          "internalType": "address",
          "name": "_feeTo",
          "type": "address"
        }
      ],
      "name": "setFeeTo",
      "outputs": [],
      "stateMutability": "nonpayable",
      "type": "function"
    },
    {
      "inputs": [
        {
          "internalType": "address",
          "name": "_feeToSetter",
          "type": "address"
        }
      ],
      "name": "setFeeToSetter",
      "outputs": [],
      "stateMutability": "nonpayable",
      "type": "function"
    },
    {
      "inputs": [
        {
          "internalType": "address",
          "name": "newOwner",
          "type": "address"
        }
      ],
      "name": "transferOwnership",
      "outputs": [],
      "stateMutability": "nonpayable",
      "type": "function"
    },
    {
      "inputs": [
        {
          "internalType": "uint256",
          "name": "_auctionId",
          "type": "uint256"
        }
      ],
      "name": "unbid",
      "outputs": [],
      "stateMutability": "nonpayable",
      "type": "function"
    },
    {
      "inputs": [
        {
          "internalType": "address",
          "name": "",
          "type": "address"
        }
      ],
      "name": "vaultBalances",
      "outputs": [
        {
          "internalType": "uint256",
          "name": "",
          "type": "uint256"
        }
      ],
      "stateMutability": "view",
      "type": "function"
    }
  ],
  "transactionHash": "0x0b3ace267e50186b498ae47ad36aff894aee2e16186d604be1d39e2bbf5f138d",
  "args": [],
  "numDeployments": 1,
  "solcInputHash": "ad24d1ed3bf060a5361c51d754aec405",
  "bytecode": "0x608060405234801561001057600080fd5b506125a2806100206000396000f3fe6080604052600436106101b75760003560e01c8063715018a6116100ec578063afb3e63e1161008a578063eba39dab11610064578063eba39dab1461061a578063efe114cf14610653578063f2fde38b1461068c578063f46901ed146106bf576101b7565b8063afb3e63e146105bd578063bceb4bdb146105f0578063c45a015514610605576101b7565b8063957a867c116100c6578063957a867c146104b45780639a36f932146105135780639dd886cf14610528578063a2e74af61461058a576101b7565b8063715018a6146104515780638da5cb5b14610466578063920605f51461047b576101b7565b80632788aeb211610159578063379607f511610133578063379607f51461038a5780634423c5f1146103b4578063454a2ab3146104015780635bb478081461041e576101b7565b80632788aeb2146102f9578063325c25a21461033257806334db264b14610347576101b7565b80630e4cfe97116101955780630e4cfe97146102305780630f9e39bf1461025a5780630fb5a6b4146102855780631e6871a9146102ac576101b7565b8063017e7e58146101bc57806302923878146101ed578063094b74151461021b575b600080fd5b3480156101c857600080fd5b506101d16106f2565b604080516001600160a01b039092168252519081900360200190f35b6102196004803603604081101561020357600080fd5b506001600160a01b038135169060200135610701565b005b34801561022757600080fd5b506101d1610cb2565b34801561023c57600080fd5b506102196004803603602081101561025357600080fd5b5035610cc6565b34801561026657600080fd5b5061026f610e84565b6040805160ff9092168252519081900360200190f35b34801561029157600080fd5b5061029a610e8d565b60408051918252519081900360200190f35b3480156102b857600080fd5b506102e5600480360360408110156102cf57600080fd5b506001600160a01b038135169060200135610e93565b604080519115158252519081900360200190f35b34801561030557600080fd5b5061029a6004803603604081101561031c57600080fd5b50803590602001356001600160a01b0316610eb3565b34801561033e57600080fd5b5061029a610ed0565b34801561035357600080fd5b506102196004803603608081101561036a57600080fd5b5080359060ff602082013581169160408101359160609091013516610ed6565b34801561039657600080fd5b50610219600480360360208110156103ad57600080fd5b5035610fe1565b3480156103c057600080fd5b506103de600480360360208110156103d757600080fd5b503561125f565b604080516001600160a01b03909316835260208301919091528051918290030190f35b6102196004803603602081101561041757600080fd5b5035611284565b34801561042a57600080fd5b506102196004803603602081101561044157600080fd5b50356001600160a01b03166115fc565b34801561045d57600080fd5b50610219611692565b34801561047257600080fd5b506101d1611750565b34801561048757600080fd5b506102e56004803603604081101561049e57600080fd5b506001600160a01b03813516906020013561175f565b3480156104c057600080fd5b506104de600480360360208110156104d757600080fd5b503561178d565b6040805195865260208601949094526001600160a01b0390921684840152606084015215156080830152519081900360a00190f35b34801561051f57600080fd5b5061026f6117d8565b34801561053457600080fd5b50610219600480360360e081101561054b57600080fd5b506001600160a01b03813581169160208101359160ff604083013581169260608101359260808201359092169160a082013581169160c00135166117e1565b34801561059657600080fd5b50610219600480360360208110156105ad57600080fd5b50356001600160a01b0316611910565b3480156105c957600080fd5b5061029a600480360360208110156105e057600080fd5b50356001600160a01b03166119a9565b3480156105fc57600080fd5b5061029a6119bb565b34801561061157600080fd5b506101d16119c1565b34801561062657600080fd5b5061029a6004803603604081101561063d57600080fd5b506001600160a01b0381351690602001356119d0565b34801561065f57600080fd5b506102196004803603604081101561067657600080fd5b506001600160a01b0381351690602001356119ed565b34801561069857600080fd5b50610219600480360360208110156106af57600080fd5b50356001600160a01b0316611c0e565b3480156106cb57600080fd5b50610219600480360360208110156106e257600080fd5b50356001600160a01b0316611d23565b6070546001600160a01b031681565b606b54604080517f25b26df60000000000000000000000000000000000000000000000000000000081526001600160a01b038581166004830152915191909216916325b26df6916024808301926020929190829003018186803b15801561076757600080fd5b505afa15801561077b573d6000803e3d6000fd5b505050506040513d602081101561079157600080fd5b50511515806108385750606b54604080517f3c402de90000000000000000000000000000000000000000000000000000000081526000600482015290516001600160a01b03808616931691633c402de9916024808301926020929190829003018186803b15801561080157600080fd5b505afa158015610815573d6000803e3d6000fd5b505050506040513d602081101561082b57600080fd5b50516001600160a01b0316145b6108735760405162461bcd60e51b815260040180806020018281038252602d8152602001806122b0602d913960400191505060405180910390fd5b816001600160a01b03166302fb0c5e6040518163ffffffff1660e01b815260040160206040518083038186803b1580156108ac57600080fd5b505afa1580156108c0573d6000803e3d6000fd5b505050506040513d60208110156108d657600080fd5b50516109135760405162461bcd60e51b815260040180806020018281038252602e8152602001806124cc602e913960400191505060405180910390fd5b600080836001600160a01b031663265aa621846040518263ffffffff1660e01b81526004018082815260200191505060806040518083038186803b15801561095a57600080fd5b505afa15801561096e573d6000803e3d6000fd5b505050506040513d608081101561098457600080fd5b50805160609091015190925090506001600160a01b0382166109d75760405162461bcd60e51b81526004018080602001828103825260248152602001806123706024913960400191505060405180910390fd5b34811115610a165760405162461bcd60e51b815260040180806020018281038252603e81526020018061243b603e913960400191505060405180910390fd5b6001600160a01b038416600090815260696020908152604080832086845290915290205460ff1615610a795760405162461bcd60e51b81526004018080602001828103825260268152602001806125476026913960400191505060405180910390fd5b6001600160a01b03841660009081526069602090815260408083208684529091528120805460ff19166001179055606554606c54909190610ac290610abc611dee565b90611df2565b905060656040518060a00160405280610ad9611dee565b815260208082018590526001600160a01b038a8116604080850182905260608086018d905260006080968701819052885460018082018b55998252868220895160059092020190815588870151998101999099558783015160028a0180546001600160a01b0319169190961617909455860151600388015594909301516004909501805460ff1916951515959095179094559083526068815281832088845290528120839055606f54610b9090349060ff16611e53565b9050610bbe610b9f3483611eba565b6001600160a01b0389166000908152606a602052604090205490611df2565b6001600160a01b038881166000908152606a60209081526040808320949094558351808501855233815234818301908152888452606690925293909120925183546001600160a01b031916921691909117825551600190910155610c2181611f17565b81876001600160a01b0316847f05f9bf100dd0ca9f37f08e0526690286d357ed7d6c5a4ac29730440b6e2dfd6289610c57611dee565b6040805192835260208301919091528051918290030190a46040805134815290518391339186917f77689ebf788c0f9d9e045fa81e22903cc7a1e34686c3fa4874c9a6a4d8a239f5919081900360200190a450505050505050565b606f5461010090046001600160a01b031681565b610cce612273565b50600081815260666020908152604091829020825180840190935280546001600160a01b031680845260019091015491830191909152331415610d425760405162461bcd60e51b81526004018080602001828103825260288152602001806124fa6028913960400191505060405180910390fd5b600082815260676020908152604080832033845290915290205480610dae576040805162461bcd60e51b815260206004820152601c60248201527f41756374696f6e48616e646c65723a204e6f2062696420666f756e6400000000604482015290519081900360640190fd5b6000838152606760209081526040808320338085529252808320839055516060919084908481818185875af1925050503d8060008114610e0a576040519150601f19603f3d011682016040523d82523d6000602084013e610e0f565b606091505b509150915081610e505760405162461bcd60e51b81526004018080602001828103825260248152602001806122dd6024913960400191505060405180910390fd5b604051339086907ffb280d892235c44edc6a8f273938a4f3ad3b134cc20ff8b50d5ee2e13a1d27a290600090a35050505050565b606d5460ff1681565b606c5481565b606960209081526000928352604080842090915290825290205460ff1681565b606760209081526000928352604080842090915290825290205481565b60655490565b610ede611fb4565b6001600160a01b0316610eef611750565b6001600160a01b031614610f4a576040805162461bcd60e51b815260206004820181905260248201527f4f776e61626c653a2063616c6c6572206973206e6f7420746865206f776e6572604482015290519081900360640190fd5b600084118015610f5d575060648360ff16115b8015610f695750600082115b8015610f78575060008160ff16115b610fb35760405162461bcd60e51b81526004018080602001828103825260228152602001806123ea6022913960400191505060405180910390fd5b606c93909355606d805460ff93841660ff1991821617909155606e91909155606f8054929093169116179055565b600060658281548110610ff057fe5b90600052602060002090600502019050806001015461100d611dee565b116110495760405162461bcd60e51b81526004018080602001828103825260238152602001806123276023913960400191505060405180910390fd5b600481015460ff16156110a3576040805162461bcd60e51b815260206004820152601f60248201527f41756374696f6e48616e646c65723a20416c726561647920636c61696d656400604482015290519081900360640190fd5b6110ab612273565b50600082815260666020908152604091829020825180840190935280546001600160a01b031680845260019091015491830191909152331461111e5760405162461bcd60e51b815260040180806020018281038252602581526020018061228b6025913960400191505060405180910390fd5b6004808301805460ff19166001179055600283015460038401548351604080517f62432b58000000000000000000000000000000000000000000000000000000008152948501929092526001600160a01b03908116602485015290519116916362432b589160448083019260209291908290030181600087803b1580156111a457600080fd5b505af11580156111b8573d6000803e3d6000fd5b505050506040513d60208110156111ce57600080fd5b5051611221576040805162461bcd60e51b815260206004820152601c60248201527f41756374696f6e48616e646c65723a20436c61696d206661696c656400000000604482015290519081900360640190fd5b80516040516001600160a01b039091169084907f6c31918c2dabe0275b23bef69f1a9e93053553a1e9fc048dde2389137628a8dd90600090a3505050565b606660205260009081526040902080546001909101546001600160a01b039091169082565b60006065828154811061129357fe5b9060005260206000209060050201905080600101546112b0611dee565b106112ec5760405162461bcd60e51b81526004018080602001828103825260258152602001806125226025913960400191505060405180910390fd5b8060020160009054906101000a90046001600160a01b03166001600160a01b03166302fb0c5e6040518163ffffffff1660e01b815260040160206040518083038186803b15801561133c57600080fd5b505afa158015611350573d6000803e3d6000fd5b505050506040513d602081101561136657600080fd5b50516113a35760405162461bcd60e51b815260040180806020018281038252602e8152602001806124cc602e913960400191505060405180910390fd5b600082815260666020526040902080546001600160a01b03163314156113fa5760405162461bcd60e51b815260040180806020018281038252602681526020018061234a6026913960400191505060405180910390fd5b611405346064611fb8565b606d5460018301546114199160ff16611fb8565b111561146c576040805162461bcd60e51b815260206004820152601b60248201527f41756374696f6e48616e646c65723a2042696420746f6f206c6f770000000000604482015290519081900360640190fd5b6000838152606760209081526040808320338452909152902054156114c25760405162461bcd60e51b81526004018080602001828103825260288152602001806123946028913960400191505060405180910390fd5b606e5460018301546114d391611eba565b6114db611dee565b11156114f857606e5460018301546114f291611df2565b60018301555b6001810154600084815260676020908152604080832085546001600160a01b031684529091528120829055606f5490916115419160ff169061153b903490611eba565b90611e53565b600183015460028501546001600160a01b03166000908152606a602052604090205491925061157e91839161157891829034611df2565b90611eba565b60028401546001600160a01b03166000908152606a602052604090205581546001600160a01b031916331782553460018301556115ba81611f17565b6001830154604080513481529051339187917f77689ebf788c0f9d9e045fa81e22903cc7a1e34686c3fa4874c9a6a4d8a239f59181900360200190a450505050565b611604611fb4565b6001600160a01b0316611615611750565b6001600160a01b031614611670576040805162461bcd60e51b815260206004820181905260248201527f4f776e61626c653a2063616c6c6572206973206e6f7420746865206f776e6572604482015290519081900360640190fd5b606b80546001600160a01b0319166001600160a01b0392909216919091179055565b61169a611fb4565b6001600160a01b03166116ab611750565b6001600160a01b031614611706576040805162461bcd60e51b815260206004820181905260248201527f4f776e61626c653a2063616c6c6572206973206e6f7420746865206f776e6572604482015290519081900360640190fd5b6033546040516000916001600160a01b0316907f8be0079c531659141344cd1fd0a4f28419497f9722a3daafe3b4186f6b6457e0908390a3603380546001600160a01b0319169055565b6033546001600160a01b031690565b6001600160a01b038216600090815260696020908152604080832084845290915290205460ff165b92915050565b6065818154811061179a57fe5b60009182526020909120600590910201805460018201546002830154600384015460049094015492945090926001600160a01b039091169160ff1685565b606f5460ff1681565b600054610100900460ff16806117fa57506117fa612011565b80611808575060005460ff16155b6118435760405162461bcd60e51b815260040180806020018281038252602e8152602001806123bc602e913960400191505060405180910390fd5b600054610100900460ff1615801561186e576000805460ff1961ff0019909116610100171660011790555b611876612022565b606b80546001600160a01b03808b166001600160a01b031992831617909255606c899055606d805460ff808b1660ff1992831617909255606e899055606f80548886166101000274ffffffffffffffffffffffffffffffffffffffff0019948b1691909316179290921617905560708054928516929091169190911790558015611906576000805461ff00191690555b5050505050505050565b606f5461010090046001600160a01b03163314611974576040805162461bcd60e51b815260206004820152601f60248201527f41756374696f6e48616e646c65723a204e6f7420666565546f53657474657200604482015290519081900360640190fd5b606f80546001600160a01b039092166101000274ffffffffffffffffffffffffffffffffffffffff0019909216919091179055565b606a6020526000908152604090205481565b606e5481565b606b546001600160a01b031681565b606860209081526000928352604080842090915290825290205481565b6001600160a01b0382166000908152606a6020526040902054611a415760405162461bcd60e51b815260040180806020018281038252602f81526020018061240c602f913960400191505060405180910390fd5b6000611acf836001600160a01b03166318160ddd6040518163ffffffff1660e01b815260040160206040518083038186803b158015611a7f57600080fd5b505afa158015611a93573d6000803e3d6000fd5b505050506040513d6020811015611aa957600080fd5b50516001600160a01b0385166000908152606a602052604090205461153b908590611fb8565b9050826001600160a01b03166379cc679033846040518363ffffffff1660e01b815260040180836001600160a01b0316815260200182815260200192505050600060405180830381600087803b158015611b2857600080fd5b505af1158015611b3c573d6000803e3d6000fd5b5050506001600160a01b0384166000908152606a6020526040902054611b63915082611eba565b6001600160a01b0384166000908152606a6020526040808220929092559051606090339084908481818185875af1925050503d8060008114611bc1576040519150601f19603f3d011682016040523d82523d6000602084013e611bc6565b606091505b509150915081611c075760405162461bcd60e51b81526004018080602001828103825260248152602001806122dd6024913960400191505060405180910390fd5b5050505050565b611c16611fb4565b6001600160a01b0316611c27611750565b6001600160a01b031614611c82576040805162461bcd60e51b815260206004820181905260248201527f4f776e61626c653a2063616c6c6572206973206e6f7420746865206f776e6572604482015290519081900360640190fd5b6001600160a01b038116611cc75760405162461bcd60e51b81526004018080602001828103825260268152602001806123016026913960400191505060405180910390fd5b6033546040516001600160a01b038084169216907f8be0079c531659141344cd1fd0a4f28419497f9722a3daafe3b4186f6b6457e090600090a3603380546001600160a01b0319166001600160a01b0392909216919091179055565b606f5461010090046001600160a01b03163314611d87576040805162461bcd60e51b815260206004820152601f60248201527f41756374696f6e48616e646c65723a204e6f7420666565546f53657474657200604482015290519081900360640190fd5b6001600160a01b038116611dcc5760405162461bcd60e51b815260040180806020018281038252603281526020018061249a6032913960400191505060405180910390fd5b607080546001600160a01b0319166001600160a01b0392909216919091179055565b4290565b600082820183811015611e4c576040805162461bcd60e51b815260206004820152601b60248201527f536166654d6174683a206164646974696f6e206f766572666c6f770000000000604482015290519081900360640190fd5b9392505050565b6000808211611ea9576040805162461bcd60e51b815260206004820152601a60248201527f536166654d6174683a206469766973696f6e206279207a65726f000000000000604482015290519081900360640190fd5b818381611eb257fe5b049392505050565b600082821115611f11576040805162461bcd60e51b815260206004820152601e60248201527f536166654d6174683a207375627472616374696f6e206f766572666c6f770000604482015290519081900360640190fd5b50900390565b6070546040516000916060916001600160a01b039091169084908481818185875af1925050503d8060008114611f69576040519150601f19603f3d011682016040523d82523d6000602084013e611f6e565b606091505b509150915081611faf5760405162461bcd60e51b81526004018080602001828103825260248152602001806122dd6024913960400191505060405180910390fd5b505050565b3390565b600082611fc757506000611787565b82820282848281611fd457fe5b0414611e4c5760405162461bcd60e51b81526004018080602001828103825260218152602001806124796021913960400191505060405180910390fd5b600061201c306120d4565b15905090565b600054610100900460ff168061203b575061203b612011565b80612049575060005460ff16155b6120845760405162461bcd60e51b815260040180806020018281038252602e8152602001806123bc602e913960400191505060405180910390fd5b600054610100900460ff161580156120af576000805460ff1961ff0019909116610100171660011790555b6120b76120da565b6120bf61217a565b80156120d1576000805461ff00191690555b50565b3b151590565b600054610100900460ff16806120f357506120f3612011565b80612101575060005460ff16155b61213c5760405162461bcd60e51b815260040180806020018281038252602e8152602001806123bc602e913960400191505060405180910390fd5b600054610100900460ff161580156120bf576000805460ff1961ff00199091166101001716600117905580156120d1576000805461ff001916905550565b600054610100900460ff16806121935750612193612011565b806121a1575060005460ff16155b6121dc5760405162461bcd60e51b815260040180806020018281038252602e8152602001806123bc602e913960400191505060405180910390fd5b600054610100900460ff16158015612207576000805460ff1961ff0019909116610100171660011790555b6000612211611fb4565b603380546001600160a01b0319166001600160a01b038316908117909155604051919250906000907f8be0079c531659141344cd1fd0a4f28419497f9722a3daafe3b4186f6b6457e0908290a35080156120d1576000805461ff001916905550565b60408051808201909152600080825260208201529056fe41756374696f6e48616e646c65723a204f6e6c792077696e6e65722063616e20636c61696d41756374696f6e48616e646c65723a2075546f6b656e20636f6e7472616374206d7573742062652076616c696441756374696f6e48616e646c65723a204661696c656420746f2073656e642045746865724f776e61626c653a206e6577206f776e657220697320746865207a65726f206164647265737341756374696f6e48616e646c65723a2041756374696f6e206973206e6f74206f76657241756374696f6e48616e646c65723a20596f75206861766520616e206163746976652062696441756374696f6e48616e646c65723a204e465420696e646578206d75737420657869737441756374696f6e48616e646c65723a20436f6c6c6563742062696420726566756e64206669727374496e697469616c697a61626c653a20636f6e747261637420697320616c726561647920696e697469616c697a656441756374696f6e48616e646c65723a20496e76616c696420706172616d657465727341756374696f6e48616e646c65723a204e6f207661756c742062616c616e636520746f2072656465656d2066726f6d41756374696f6e48616e646c65723a205374617274696e6720626964206d75737420626520686967686572207468616e2074726967676572207072696365536166654d6174683a206d756c7469706c69636174696f6e206f766572666c6f7741756374696f6e48616e646c65723a2046656520616464726573732063616e6e6f74206265207a65726f206164647265737341756374696f6e48616e646c65723a2043616e206e6f7420626964206f6e20696e6163746976652075546f6b656e41756374696f6e48616e646c65723a20546f70206269646465722063616e206e6f7420756e62696441756374696f6e48616e646c65723a2041756374696f6e20666f72204e465420656e64656441756374696f6e48616e646c65723a204e465420616c7265616479206f6e2061756374696f6ea26469706673582212206c2f6c3b20e33db00ff520839dac602ce052e9d987df6d26577f622b6c3a944064736f6c634300060c0033",
  "devdoc": {
    "kind": "dev",
    "methods": {
      "owner()": {
        "details": "Returns the address of the current owner."
      },
      "renounceOwnership()": {
        "details": "Leaves the contract without owner. It will not be possible to call `onlyOwner` functions anymore. Can only be called by the current owner. NOTE: Renouncing ownership will leave the contract without an owner, thereby removing any functionality that is only available to the owner."
      },
      "transferOwnership(address)": {
        "details": "Transfers ownership of the contract to a new account (`newOwner`). Can only be called by the current owner."
      }
    },
    "version": 1
  },
  "userdoc": {
    "kind": "user",
    "methods": {},
    "version": 1
  },
  "storageLayout": {
    "storage": [
      {
        "astId": 807,
        "contract": "contracts/AuctionHandler.sol:AuctionHandler",
        "label": "_initialized",
        "offset": 0,
        "slot": "0",
        "type": "t_bool"
      },
      {
        "astId": 810,
        "contract": "contracts/AuctionHandler.sol:AuctionHandler",
        "label": "_initializing",
        "offset": 1,
        "slot": "0",
        "type": "t_bool"
      },
      {
        "astId": 2393,
        "contract": "contracts/AuctionHandler.sol:AuctionHandler",
        "label": "__gap",
        "offset": 0,
        "slot": "1",
        "type": "t_array(t_uint256)50_storage"
      },
      {
        "astId": 10,
        "contract": "contracts/AuctionHandler.sol:AuctionHandler",
        "label": "_owner",
        "offset": 0,
        "slot": "51",
        "type": "t_address"
      },
      {
        "astId": 129,
        "contract": "contracts/AuctionHandler.sol:AuctionHandler",
        "label": "__gap",
        "offset": 0,
        "slot": "52",
        "type": "t_array(t_uint256)49_storage"
      },
      {
        "astId": 8671,
        "contract": "contracts/AuctionHandler.sol:AuctionHandler",
        "label": "auctionInfo",
        "offset": 0,
        "slot": "101",
        "type": "t_array(t_struct(AuctionInfo)8663_storage)dyn_storage"
      },
      {
        "astId": 8675,
        "contract": "contracts/AuctionHandler.sol:AuctionHandler",
        "label": "bids",
        "offset": 0,
        "slot": "102",
        "type": "t_mapping(t_uint256,t_struct(Bid)8668_storage)"
      },
      {
        "astId": 8681,
        "contract": "contracts/AuctionHandler.sol:AuctionHandler",
        "label": "bidRefunds",
        "offset": 0,
        "slot": "103",
        "type": "t_mapping(t_uint256,t_mapping(t_address,t_uint256))"
      },
      {
        "astId": 8687,
        "contract": "contracts/AuctionHandler.sol:AuctionHandler",
        "label": "auctionIndex",
        "offset": 0,
        "slot": "104",
        "type": "t_mapping(t_address,t_mapping(t_uint256,t_uint256))"
      },
      {
        "astId": 8693,
        "contract": "contracts/AuctionHandler.sol:AuctionHandler",
        "label": "auctionStarted",
        "offset": 0,
        "slot": "105",
        "type": "t_mapping(t_address,t_mapping(t_uint256,t_bool))"
      },
      {
        "astId": 8697,
        "contract": "contracts/AuctionHandler.sol:AuctionHandler",
        "label": "vaultBalances",
        "offset": 0,
        "slot": "106",
        "type": "t_mapping(t_address,t_uint256)"
      },
      {
        "astId": 8699,
        "contract": "contracts/AuctionHandler.sol:AuctionHandler",
        "label": "factory",
        "offset": 0,
        "slot": "107",
        "type": "t_address"
      },
      {
        "astId": 8701,
        "contract": "contracts/AuctionHandler.sol:AuctionHandler",
        "label": "duration",
        "offset": 0,
        "slot": "108",
        "type": "t_uint256"
      },
      {
        "astId": 8703,
        "contract": "contracts/AuctionHandler.sol:AuctionHandler",
        "label": "minBidMultiplier",
        "offset": 0,
        "slot": "109",
        "type": "t_uint8"
      },
      {
        "astId": 8705,
        "contract": "contracts/AuctionHandler.sol:AuctionHandler",
        "label": "auctionExtension",
        "offset": 0,
        "slot": "110",
        "type": "t_uint256"
      },
      {
        "astId": 8707,
        "contract": "contracts/AuctionHandler.sol:AuctionHandler",
        "label": "feeDivisor",
        "offset": 0,
        "slot": "111",
        "type": "t_uint8"
      },
      {
        "astId": 8709,
        "contract": "contracts/AuctionHandler.sol:AuctionHandler",
        "label": "feeToSetter",
        "offset": 1,
        "slot": "111",
        "type": "t_address"
      },
      {
        "astId": 8711,
        "contract": "contracts/AuctionHandler.sol:AuctionHandler",
        "label": "feeTo",
        "offset": 0,
        "slot": "112",
        "type": "t_address"
      }
    ],
    "types": {
      "t_address": {
        "encoding": "inplace",
        "label": "address",
        "numberOfBytes": "20"
      },
      "t_array(t_struct(AuctionInfo)8663_storage)dyn_storage": {
        "base": "t_struct(AuctionInfo)8663_storage",
        "encoding": "dynamic_array",
        "label": "struct AuctionHandler.AuctionInfo[]",
        "numberOfBytes": "32"
      },
      "t_array(t_uint256)49_storage": {
        "base": "t_uint256",
        "encoding": "inplace",
        "label": "uint256[49]",
        "numberOfBytes": "1568"
      },
      "t_array(t_uint256)50_storage": {
        "base": "t_uint256",
        "encoding": "inplace",
        "label": "uint256[50]",
        "numberOfBytes": "1600"
      },
      "t_bool": {
        "encoding": "inplace",
        "label": "bool",
        "numberOfBytes": "1"
      },
      "t_mapping(t_address,t_mapping(t_uint256,t_bool))": {
        "encoding": "mapping",
        "key": "t_address",
        "label": "mapping(address => mapping(uint256 => bool))",
        "numberOfBytes": "32",
        "value": "t_mapping(t_uint256,t_bool)"
      },
      "t_mapping(t_address,t_mapping(t_uint256,t_uint256))": {
        "encoding": "mapping",
        "key": "t_address",
        "label": "mapping(address => mapping(uint256 => uint256))",
        "numberOfBytes": "32",
        "value": "t_mapping(t_uint256,t_uint256)"
      },
      "t_mapping(t_address,t_uint256)": {
        "encoding": "mapping",
        "key": "t_address",
        "label": "mapping(address => uint256)",
        "numberOfBytes": "32",
        "value": "t_uint256"
      },
      "t_mapping(t_uint256,t_bool)": {
        "encoding": "mapping",
        "key": "t_uint256",
        "label": "mapping(uint256 => bool)",
        "numberOfBytes": "32",
        "value": "t_bool"
      },
      "t_mapping(t_uint256,t_mapping(t_address,t_uint256))": {
        "encoding": "mapping",
        "key": "t_uint256",
        "label": "mapping(uint256 => mapping(address => uint256))",
        "numberOfBytes": "32",
        "value": "t_mapping(t_address,t_uint256)"
      },
      "t_mapping(t_uint256,t_struct(Bid)8668_storage)": {
        "encoding": "mapping",
        "key": "t_uint256",
        "label": "mapping(uint256 => struct AuctionHandler.Bid)",
        "numberOfBytes": "32",
        "value": "t_struct(Bid)8668_storage"
      },
      "t_mapping(t_uint256,t_uint256)": {
        "encoding": "mapping",
        "key": "t_uint256",
        "label": "mapping(uint256 => uint256)",
        "numberOfBytes": "32",
        "value": "t_uint256"
      },
      "t_struct(AuctionInfo)8663_storage": {
        "encoding": "inplace",
        "label": "struct AuctionHandler.AuctionInfo",
        "members": [
          {
            "astId": 8654,
            "contract": "contracts/AuctionHandler.sol:AuctionHandler",
            "label": "startTime",
            "offset": 0,
            "slot": "0",
            "type": "t_uint256"
          },
          {
            "astId": 8656,
            "contract": "contracts/AuctionHandler.sol:AuctionHandler",
            "label": "endTime",
            "offset": 0,
            "slot": "1",
            "type": "t_uint256"
          },
          {
            "astId": 8658,
            "contract": "contracts/AuctionHandler.sol:AuctionHandler",
            "label": "uToken",
            "offset": 0,
            "slot": "2",
            "type": "t_address"
          },
          {
            "astId": 8660,
            "contract": "contracts/AuctionHandler.sol:AuctionHandler",
            "label": "nftIndexForUToken",
            "offset": 0,
            "slot": "3",
            "type": "t_uint256"
          },
          {
            "astId": 8662,
            "contract": "contracts/AuctionHandler.sol:AuctionHandler",
            "label": "claimed",
            "offset": 0,
            "slot": "4",
            "type": "t_bool"
          }
        ],
        "numberOfBytes": "160"
      },
      "t_struct(Bid)8668_storage": {
        "encoding": "inplace",
        "label": "struct AuctionHandler.Bid",
        "members": [
          {
            "astId": 8665,
            "contract": "contracts/AuctionHandler.sol:AuctionHandler",
            "label": "bidder",
            "offset": 0,
            "slot": "0",
            "type": "t_address"
          },
          {
            "astId": 8667,
            "contract": "contracts/AuctionHandler.sol:AuctionHandler",
            "label": "amount",
            "offset": 0,
            "slot": "1",
            "type": "t_uint256"
          }
        ],
        "numberOfBytes": "64"
      },
      "t_uint256": {
        "encoding": "inplace",
        "label": "uint256",
        "numberOfBytes": "32"
      },
      "t_uint8": {
        "encoding": "inplace",
        "label": "uint8",
        "numberOfBytes": "1"
      }
    }
  }
}