{
  "address": "0xC6Fb120bF74aB9B8FEa197aB9e1dEa3A97df2A60",
  "abi": [
    {
      "anonymous": false,
      "inputs": [
        {
          "indexed": true,
          "internalType": "address",
          "name": "owner",
          "type": "address"
        },
        {
          "indexed": true,
          "internalType": "address",
          "name": "spender",
          "type": "address"
        },
        {
          "indexed": false,
          "internalType": "uint256",
          "name": "value",
          "type": "uint256"
        }
      ],
      "name": "Approval",
      "type": "event"
    },
    {
      "anonymous": false,
      "inputs": [
        {
          "indexed": true,
          "internalType": "address",
          "name": "delegator",
          "type": "address"
        },
        {
          "indexed": true,
          "internalType": "address",
          "name": "fromDelegate",
          "type": "address"
        },
        {
          "indexed": true,
          "internalType": "address",
          "name": "toDelegate",
          "type": "address"
        }
      ],
      "name": "DelegateChanged",
      "type": "event"
    },
    {
      "anonymous": false,
      "inputs": [
        {
          "indexed": true,
          "internalType": "address",
          "name": "delegate",
          "type": "address"
        },
        {
          "indexed": false,
          "internalType": "uint256",
          "name": "previousBalance",
          "type": "uint256"
        },
        {
          "indexed": false,
          "internalType": "uint256",
          "name": "newBalance",
          "type": "uint256"
        }
      ],
      "name": "DelegateVotesChanged",
      "type": "event"
    },
    {
      "anonymous": false,
      "inputs": [
        {
          "indexed": false,
          "internalType": "uint256[]",
          "name": "tokenIDs",
          "type": "uint256[]"
        },
        {
          "indexed": false,
          "internalType": "uint256[]",
          "name": "amounts",
          "type": "uint256[]"
        },
        {
          "indexed": false,
          "internalType": "uint256[]",
          "name": "triggerPrices",
          "type": "uint256[]"
        },
        {
          "indexed": true,
          "internalType": "address",
          "name": "contractAddr",
          "type": "address"
        }
      ],
      "name": "Deposited",
      "type": "event"
    },
    {
      "anonymous": false,
      "inputs": [],
      "name": "Issued",
      "type": "event"
    },
    {
      "anonymous": false,
      "inputs": [
        {
          "indexed": true,
          "internalType": "address",
          "name": "previousOwner",
          "type": "address"
        },
        {
          "indexed": true,
          "internalType": "address",
          "name": "newOwner",
          "type": "address"
        }
      ],
      "name": "OwnershipTransferred",
      "type": "event"
    },
    {
      "anonymous": false,
      "inputs": [
        {
          "indexed": true,
          "internalType": "uint256[]",
          "name": "nftIndex",
          "type": "uint256[]"
        },
        {
          "indexed": false,
          "internalType": "uint256[]",
          "name": "price",
          "type": "uint256[]"
        }
      ],
      "name": "PriceUpdate",
      "type": "event"
    },
    {
      "anonymous": false,
      "inputs": [],
      "name": "Refunded",
      "type": "event"
    },
    {
      "anonymous": false,
      "inputs": [
        {
          "indexed": true,
          "internalType": "address",
          "name": "from",
          "type": "address"
        },
        {
          "indexed": true,
          "internalType": "address",
          "name": "to",
          "type": "address"
        },
        {
          "indexed": false,
          "internalType": "uint256",
          "name": "value",
          "type": "uint256"
        }
      ],
      "name": "Transfer",
      "type": "event"
    },
    {
      "inputs": [],
      "name": "DELEGATION_TYPEHASH",
      "outputs": [
        {
          "internalType": "bytes32",
          "name": "",
          "type": "bytes32"
        }
      ],
      "stateMutability": "view",
      "type": "function"
    },
    {
      "inputs": [],
      "name": "DOMAIN_TYPEHASH",
      "outputs": [
        {
          "internalType": "bytes32",
          "name": "",
          "type": "bytes32"
        }
      ],
      "stateMutability": "view",
      "type": "function"
    },
    {
      "inputs": [],
      "name": "active",
      "outputs": [
        {
          "internalType": "bool",
          "name": "",
          "type": "bool"
        }
      ],
      "stateMutability": "view",
      "type": "function"
    },
    {
      "inputs": [
        {
          "internalType": "address",
          "name": "owner",
          "type": "address"
        },
        {
          "internalType": "address",
          "name": "spender",
          "type": "address"
        }
      ],
      "name": "allowance",
      "outputs": [
        {
          "internalType": "uint256",
          "name": "",
          "type": "uint256"
        }
      ],
      "stateMutability": "view",
      "type": "function"
    },
    {
      "inputs": [
        {
          "internalType": "address",
          "name": "spender",
          "type": "address"
        },
        {
          "internalType": "uint256",
          "name": "amount",
          "type": "uint256"
        }
      ],
      "name": "approve",
      "outputs": [
        {
          "internalType": "bool",
          "name": "",
          "type": "bool"
        }
      ],
      "stateMutability": "nonpayable",
      "type": "function"
    },
    {
      "inputs": [
        {
          "internalType": "address",
          "name": "account",
          "type": "address"
        }
      ],
      "name": "balanceOf",
      "outputs": [
        {
          "internalType": "uint256",
          "name": "",
          "type": "uint256"
        }
      ],
      "stateMutability": "view",
      "type": "function"
    },
    {
      "inputs": [
        {
          "internalType": "uint256",
          "name": "amount",
          "type": "uint256"
        }
      ],
      "name": "burn",
      "outputs": [],
      "stateMutability": "nonpayable",
      "type": "function"
    },
    {
      "inputs": [
        {
          "internalType": "address",
          "name": "_account",
          "type": "address"
        },
        {
          "internalType": "uint256",
          "name": "_amount",
          "type": "uint256"
        }
      ],
      "name": "burn",
      "outputs": [],
      "stateMutability": "nonpayable",
      "type": "function"
    },
    {
      "inputs": [
        {
          "internalType": "address",
          "name": "account",
          "type": "address"
        },
        {
          "internalType": "uint256",
          "name": "amount",
          "type": "uint256"
        }
      ],
      "name": "burnFrom",
      "outputs": [],
      "stateMutability": "nonpayable",
      "type": "function"
    },
    {
      "inputs": [],
      "name": "cap",
      "outputs": [
        {
          "internalType": "uint256",
          "name": "",
          "type": "uint256"
        }
      ],
      "stateMutability": "view",
      "type": "function"
    },
    {
      "inputs": [
        {
          "internalType": "address",
          "name": "",
          "type": "address"
        },
        {
          "internalType": "uint32",
          "name": "",
          "type": "uint32"
        }
      ],
      "name": "checkpoints",
      "outputs": [
        {
          "internalType": "uint32",
          "name": "fromBlock",
          "type": "uint32"
        },
        {
          "internalType": "uint256",
          "name": "votes",
          "type": "uint256"
        }
      ],
      "stateMutability": "view",
      "type": "function"
    },
    {
      "inputs": [
        {
          "internalType": "uint256",
          "name": "_nftIndex",
          "type": "uint256"
        },
        {
          "internalType": "address",
          "name": "_to",
          "type": "address"
        }
      ],
      "name": "claimNFT",
      "outputs": [
        {
          "internalType": "bool",
          "name": "",
          "type": "bool"
        }
      ],
      "stateMutability": "nonpayable",
      "type": "function"
    },
    {
      "inputs": [],
      "name": "converterTimeLock",
      "outputs": [
        {
          "internalType": "address",
          "name": "",
          "type": "address"
        }
      ],
      "stateMutability": "view",
      "type": "function"
    },
    {
      "inputs": [],
      "name": "currentNFTIndex",
      "outputs": [
        {
          "internalType": "uint256",
          "name": "",
          "type": "uint256"
        }
      ],
      "stateMutability": "view",
      "type": "function"
    },
    {
      "inputs": [],
      "name": "decimals",
      "outputs": [
        {
          "internalType": "uint8",
          "name": "",
          "type": "uint8"
        }
      ],
      "stateMutability": "view",
      "type": "function"
    },
    {
      "inputs": [
        {
          "internalType": "address",
          "name": "spender",
          "type": "address"
        },
        {
          "internalType": "uint256",
          "name": "subtractedValue",
          "type": "uint256"
        }
      ],
      "name": "decreaseAllowance",
      "outputs": [
        {
          "internalType": "bool",
          "name": "",
          "type": "bool"
        }
      ],
      "stateMutability": "nonpayable",
      "type": "function"
    },
    {
      "inputs": [
        {
          "internalType": "address",
          "name": "delegatee",
          "type": "address"
        }
      ],
      "name": "delegate",
      "outputs": [],
      "stateMutability": "nonpayable",
      "type": "function"
    },
    {
      "inputs": [
        {
          "internalType": "address",
          "name": "delegatee",
          "type": "address"
        },
        {
          "internalType": "uint256",
          "name": "nonce",
          "type": "uint256"
        },
        {
          "internalType": "uint256",
          "name": "expiry",
          "type": "uint256"
        },
        {
          "internalType": "uint8",
          "name": "v",
          "type": "uint8"
        },
        {
          "internalType": "bytes32",
          "name": "r",
          "type": "bytes32"
        },
        {
          "internalType": "bytes32",
          "name": "s",
          "type": "bytes32"
        }
      ],
      "name": "delegateBySig",
      "outputs": [],
      "stateMutability": "nonpayable",
      "type": "function"
    },
    {
      "inputs": [
        {
          "internalType": "address",
          "name": "delegator",
          "type": "address"
        }
      ],
      "name": "delegates",
      "outputs": [
        {
          "internalType": "address",
          "name": "",
          "type": "address"
        }
      ],
      "stateMutability": "view",
      "type": "function"
    },
    {
      "inputs": [
        {
          "internalType": "uint256[]",
          "name": "tokenIDs",
          "type": "uint256[]"
        },
        {
          "internalType": "uint256[]",
          "name": "amounts",
          "type": "uint256[]"
        },
        {
          "internalType": "uint256[]",
          "name": "triggerPrices",
          "type": "uint256[]"
        },
        {
          "internalType": "address",
          "name": "contractAddr",
          "type": "address"
        }
      ],
      "name": "deposit",
      "outputs": [],
      "stateMutability": "nonpayable",
      "type": "function"
    },
    {
      "inputs": [],
      "name": "factory",
      "outputs": [
        {
          "internalType": "contract IUnicFactory",
          "name": "",
          "type": "address"
        }
      ],
      "stateMutability": "view",
      "type": "function"
    },
    {
      "inputs": [
        {
          "internalType": "address",
          "name": "target",
          "type": "address"
        },
        {
          "internalType": "uint256",
          "name": "value",
          "type": "uint256"
        },
        {
          "internalType": "bytes",
          "name": "callData",
          "type": "bytes"
        }
      ],
      "name": "forwardCall",
      "outputs": [
        {
          "internalType": "bool",
          "name": "success",
          "type": "bool"
        },
        {
          "internalType": "bytes",
          "name": "returnData",
          "type": "bytes"
        }
      ],
      "stateMutability": "payable",
      "type": "function"
    },
    {
      "inputs": [
        {
          "internalType": "address",
          "name": "account",
          "type": "address"
        }
      ],
      "name": "getCurrentVotes",
      "outputs": [
        {
          "internalType": "uint256",
          "name": "",
          "type": "uint256"
        }
      ],
      "stateMutability": "view",
      "type": "function"
    },
    {
      "inputs": [
        {
          "internalType": "address",
          "name": "account",
          "type": "address"
        },
        {
          "internalType": "uint256",
          "name": "blockNumber",
          "type": "uint256"
        }
      ],
      "name": "getPriorVotes",
      "outputs": [
        {
          "internalType": "uint256",
          "name": "",
          "type": "uint256"
        }
      ],
      "stateMutability": "view",
      "type": "function"
    },
    {
      "inputs": [
        {
          "internalType": "address",
          "name": "spender",
          "type": "address"
        },
        {
          "internalType": "uint256",
          "name": "addedValue",
          "type": "uint256"
        }
      ],
      "name": "increaseAllowance",
      "outputs": [
        {
          "internalType": "bool",
          "name": "",
          "type": "bool"
        }
      ],
      "stateMutability": "nonpayable",
      "type": "function"
    },
    {
      "inputs": [
        {
          "internalType": "string",
          "name": "name",
          "type": "string"
        },
        {
          "internalType": "string",
          "name": "symbol",
          "type": "string"
        },
        {
          "internalType": "address",
          "name": "_issuer",
          "type": "address"
        },
        {
          "internalType": "address",
          "name": "_factory",
          "type": "address"
        }
      ],
      "name": "initialize",
      "outputs": [
        {
          "internalType": "bool",
          "name": "",
          "type": "bool"
        }
      ],
      "stateMutability": "nonpayable",
      "type": "function"
    },
    {
      "inputs": [],
      "name": "issue",
      "outputs": [],
      "stateMutability": "nonpayable",
      "type": "function"
    },
    {
      "inputs": [],
      "name": "issuer",
      "outputs": [
        {
          "internalType": "address",
          "name": "",
          "type": "address"
        }
      ],
      "stateMutability": "view",
      "type": "function"
    },
    {
      "inputs": [],
      "name": "name",
      "outputs": [
        {
          "internalType": "string",
          "name": "",
          "type": "string"
        }
      ],
      "stateMutability": "view",
      "type": "function"
    },
    {
      "inputs": [
        {
          "internalType": "uint256",
          "name": "",
          "type": "uint256"
        }
      ],
      "name": "nfts",
      "outputs": [
        {
          "internalType": "address",
          "name": "contractAddr",
          "type": "address"
        },
        {
          "internalType": "uint256",
          "name": "tokenId",
          "type": "uint256"
        },
        {
          "internalType": "uint256",
          "name": "amount",
          "type": "uint256"
        },
        {
          "internalType": "uint256",
          "name": "triggerPrice",
          "type": "uint256"
        }
      ],
      "stateMutability": "view",
      "type": "function"
    },
    {
      "inputs": [
        {
          "internalType": "address",
          "name": "",
          "type": "address"
        }
      ],
      "name": "nonces",
      "outputs": [
        {
          "internalType": "uint256",
          "name": "",
          "type": "uint256"
        }
      ],
      "stateMutability": "view",
      "type": "function"
    },
    {
      "inputs": [
        {
          "internalType": "address",
          "name": "",
          "type": "address"
        }
      ],
      "name": "numCheckpoints",
      "outputs": [
        {
          "internalType": "uint32",
          "name": "",
          "type": "uint32"
        }
      ],
      "stateMutability": "view",
      "type": "function"
    },
    {
      "inputs": [
        {
          "internalType": "address",
          "name": "_operator",
          "type": "address"
        },
        {
          "internalType": "address",
          "name": "_from",
          "type": "address"
        },
        {
          "internalType": "uint256[]",
          "name": "_ids",
          "type": "uint256[]"
        },
        {
          "internalType": "uint256[]",
          "name": "_values",
          "type": "uint256[]"
        },
        {
          "internalType": "bytes",
          "name": "_data",
          "type": "bytes"
        }
      ],
      "name": "onERC1155BatchReceived",
      "outputs": [
        {
          "internalType": "bytes4",
          "name": "",
          "type": "bytes4"
        }
      ],
      "stateMutability": "nonpayable",
      "type": "function"
    },
    {
      "inputs": [
        {
          "internalType": "address",
          "name": "_operator",
          "type": "address"
        },
        {
          "internalType": "address",
          "name": "_from",
          "type": "address"
        },
        {
          "internalType": "uint256",
          "name": "_id",
          "type": "uint256"
        },
        {
          "internalType": "uint256",
          "name": "_value",
          "type": "uint256"
        },
        {
          "internalType": "bytes",
          "name": "_data",
          "type": "bytes"
        }
      ],
      "name": "onERC1155Received",
      "outputs": [
        {
          "internalType": "bytes4",
          "name": "",
          "type": "bytes4"
        }
      ],
      "stateMutability": "nonpayable",
      "type": "function"
    },
    {
      "inputs": [],
      "name": "owner",
      "outputs": [
        {
          "internalType": "address",
          "name": "",
          "type": "address"
        }
      ],
      "stateMutability": "view",
      "type": "function"
    },
    {
      "inputs": [
        {
          "internalType": "address",
          "name": "_to",
          "type": "address"
        }
      ],
      "name": "refund",
      "outputs": [],
      "stateMutability": "nonpayable",
      "type": "function"
    },
    {
      "inputs": [],
      "name": "renounceOwnership",
      "outputs": [],
      "stateMutability": "nonpayable",
      "type": "function"
    },
    {
      "inputs": [
        {
          "internalType": "address",
          "name": "_converterTimeLock",
          "type": "address"
        }
      ],
      "name": "setConverterTimeLock",
      "outputs": [],
      "stateMutability": "nonpayable",
      "type": "function"
    },
    {
      "inputs": [
        {
          "internalType": "address",
          "name": "_issuer",
          "type": "address"
        }
      ],
      "name": "setCurator",
      "outputs": [],
      "stateMutability": "nonpayable",
      "type": "function"
    },
    {
      "inputs": [
        {
          "internalType": "uint256[]",
          "name": "_nftIndex",
          "type": "uint256[]"
        },
        {
          "internalType": "uint256[]",
          "name": "_triggerPrices",
          "type": "uint256[]"
        }
      ],
      "name": "setTriggers",
      "outputs": [],
      "stateMutability": "nonpayable",
      "type": "function"
    },
    {
      "inputs": [
        {
          "internalType": "bytes4",
          "name": "interfaceId",
          "type": "bytes4"
        }
      ],
      "name": "supportsInterface",
      "outputs": [
        {
          "internalType": "bool",
          "name": "",
          "type": "bool"
        }
      ],
      "stateMutability": "view",
      "type": "function"
    },
    {
      "inputs": [],
      "name": "symbol",
      "outputs": [
        {
          "internalType": "string",
          "name": "",
          "type": "string"
        }
      ],
      "stateMutability": "view",
      "type": "function"
    },
    {
      "inputs": [],
      "name": "totalSupply",
      "outputs": [
        {
          "internalType": "uint256",
          "name": "",
          "type": "uint256"
        }
      ],
      "stateMutability": "view",
      "type": "function"
    },
    {
      "inputs": [
        {
          "internalType": "address",
          "name": "recipient",
          "type": "address"
        },
        {
          "internalType": "uint256",
          "name": "amount",
          "type": "uint256"
        }
      ],
      "name": "transfer",
      "outputs": [
        {
          "internalType": "bool",
          "name": "",
          "type": "bool"
        }
      ],
      "stateMutability": "nonpayable",
      "type": "function"
    },
    {
      "inputs": [
        {
          "internalType": "address",
          "name": "sender",
          "type": "address"
        },
        {
          "internalType": "address",
          "name": "recipient",
          "type": "address"
        },
        {
          "internalType": "uint256",
          "name": "amount",
          "type": "uint256"
        }
      ],
      "name": "transferFrom",
      "outputs": [
        {
          "internalType": "bool",
          "name": "",
          "type": "bool"
        }
      ],
      "stateMutability": "nonpayable",
      "type": "function"
    },
    {
      "inputs": [
        {
          "internalType": "address",
          "name": "newOwner",
          "type": "address"
        }
      ],
      "name": "transferOwnership",
      "outputs": [],
      "stateMutability": "nonpayable",
      "type": "function"
    }
  ],
  "transactionHash": "0xc8377bb418c55816aaa715742e46e4cfb6587e184267cf9ba424d0ea15b01715",
  "args": [],
  "numDeployments": 1,
  "solcInputHash": "ad24d1ed3bf060a5361c51d754aec405",
  "bytecode": "0x6080604052600061013255610133805460ff1916905534801561002157600080fd5b50614880806100316000396000f3fe6080604052600436106102fd5760003560e01c8063717ce0c11161018f578063b4b5ea57116100e1578063e7a324dc1161008a578063f23a6e6111610064578063f23a6e6114611014578063f2fde38b146110b6578063fa89401a146110e9576102fd565b8063e7a324dc14610f6d578063e90956cf14610f82578063f1127ed814610fb5576102fd565b8063c45a0155116100bb578063c45a015514610f08578063d383f64614610f1d578063dd62ed3e14610f32576102fd565b8063b4b5ea5714610d2a578063bc197c8114610d5d578063c3cda52014610eb4576102fd565b80638f15b41411610143578063a457c2d71161011d578063a457c2d714610ca3578063a9059cbb14610cdc578063af58e6f014610d15576102fd565b80638f15b41414610b0557806395d89b4114610c555780639dc29fac14610c6a576102fd565b806379cc67901161017457806379cc679014610a845780637ecebe0014610abd5780638da5cb5b14610af0576102fd565b8063717ce0c114610a18578063782d6fe114610a4b576102fd565b80633244d72a116102535780635c19a95c116101fc5780636fcfff45116101d65780636fcfff451461098457806370a08231146109d0578063715018a614610a03576102fd565b80635c19a95c1461081257806362432b58146108455780636effec501461087e576102fd565b8063395093511161022d578063395093511461077c57806342966c68146107b5578063587cde1e146107df576102fd565b80633244d72a1461056c578063342ce4b41461063d578063355274ea14610767576102fd565b80631d143848116102b557806323b872dd1161028f57806323b872dd146104a4578063265aa621146104e7578063313ce56714610541576102fd565b80631d143848146104495780631f298b6c1461047a57806320606b701461048f576102fd565b806306fdde03116102e657806306fdde031461035f578063095ea7b3146103e957806318160ddd14610422576102fd565b806301ffc9a71461030257806302fb0c5e1461034a575b600080fd5b34801561030e57600080fd5b506103366004803603602081101561032557600080fd5b50356001600160e01b03191661111c565b604080519115158252519081900360200190f35b34801561035657600080fd5b5061033661113b565b34801561036b57600080fd5b50610374611145565b6040805160208082528351818301528351919283929083019185019080838360005b838110156103ae578181015183820152602001610396565b50505050905090810190601f1680156103db5780820380516001836020036101000a031916815260200191505b509250505060405180910390f35b3480156103f557600080fd5b506103366004803603604081101561040c57600080fd5b506001600160a01b0381351690602001356111db565b34801561042e57600080fd5b506104376111f9565b60408051918252519081900360200190f35b34801561045557600080fd5b5061045e6111ff565b604080516001600160a01b039092168252519081900360200190f35b34801561048657600080fd5b5061045e611214565b34801561049b57600080fd5b50610437611224565b3480156104b057600080fd5b50610336600480360360608110156104c757600080fd5b506001600160a01b03813581169160208101359091169060400135611248565b3480156104f357600080fd5b506105116004803603602081101561050a57600080fd5b50356112cf565b604080516001600160a01b0390951685526020850193909352838301919091526060830152519081900360800190f35b34801561054d57600080fd5b50610556611301565b6040805160ff9092168252519081900360200190f35b34801561057857600080fd5b5061063b6004803603604081101561058f57600080fd5b8101906020810181356401000000008111156105aa57600080fd5b8201836020820111156105bc57600080fd5b803590602001918460208302840111640100000000831117156105de57600080fd5b9193909290916020810190356401000000008111156105fc57600080fd5b82018360208201111561060e57600080fd5b8035906020019184602083028401116401000000008311171561063057600080fd5b50909250905061130a565b005b34801561064957600080fd5b5061063b6004803603608081101561066057600080fd5b81019060208101813564010000000081111561067b57600080fd5b82018360208201111561068d57600080fd5b803590602001918460208302840111640100000000831117156106af57600080fd5b9193909290916020810190356401000000008111156106cd57600080fd5b8201836020820111156106df57600080fd5b8035906020019184602083028401116401000000008311171561070157600080fd5b91939092909160208101903564010000000081111561071f57600080fd5b82018360208201111561073157600080fd5b8035906020019184602083028401116401000000008311171561075357600080fd5b9193509150356001600160a01b03166115f5565b34801561077357600080fd5b50610437611b66565b34801561078857600080fd5b506103366004803603604081101561079f57600080fd5b506001600160a01b038135169060200135611b6d565b3480156107c157600080fd5b5061063b600480360360208110156107d857600080fd5b5035611bbb565b3480156107eb57600080fd5b5061045e6004803603602081101561080257600080fd5b50356001600160a01b0316611bcf565b34801561081e57600080fd5b5061063b6004803603602081101561083557600080fd5b50356001600160a01b0316611bed565b34801561085157600080fd5b506103366004803603604081101561086857600080fd5b50803590602001356001600160a01b0316611bf7565b6109036004803603606081101561089457600080fd5b6001600160a01b03823516916020810135918101906060810160408201356401000000008111156108c457600080fd5b8201836020820111156108d657600080fd5b803590602001918460018302840111640100000000831117156108f857600080fd5b509092509050611ebf565b60405180831515815260200180602001828103825283818151815260200191508051906020019080838360005b83811015610948578181015183820152602001610930565b50505050905090810190601f1680156109755780820380516001836020036101000a031916815260200191505b50935050505060405180910390f35b34801561099057600080fd5b506109b7600480360360208110156109a757600080fd5b50356001600160a01b0316611f80565b6040805163ffffffff9092168252519081900360200190f35b3480156109dc57600080fd5b50610437600480360360208110156109f357600080fd5b50356001600160a01b0316611f98565b348015610a0f57600080fd5b5061063b611fb3565b348015610a2457600080fd5b5061063b60048036036020811015610a3b57600080fd5b50356001600160a01b0316612071565b348015610a5757600080fd5b5061043760048036036040811015610a6e57600080fd5b506001600160a01b0381351690602001356120de565b348015610a9057600080fd5b5061063b60048036036040811015610aa757600080fd5b506001600160a01b0381351690602001356122e6565b348015610ac957600080fd5b5061043760048036036020811015610ae057600080fd5b50356001600160a01b0316612340565b348015610afc57600080fd5b5061045e612352565b348015610b1157600080fd5b5061033660048036036080811015610b2857600080fd5b810190602081018135640100000000811115610b4357600080fd5b820183602082011115610b5557600080fd5b80359060200191846001830284011164010000000083111715610b7757600080fd5b91908080601f0160208091040260200160405190810160405280939291908181526020018383808284376000920191909152509295949360208101935035915050640100000000811115610bca57600080fd5b820183602082011115610bdc57600080fd5b80359060200191846001830284011164010000000083111715610bfe57600080fd5b91908080601f016020809104026020016040519081016040528093929190818152602001838380828437600092019190915250929550506001600160a01b0383358116945060209093013590921691506123619050565b348015610c6157600080fd5b506103746124f0565b348015610c7657600080fd5b5061063b60048036036040811015610c8d57600080fd5b506001600160a01b038135169060200135612551565b348015610caf57600080fd5b5061033660048036036040811015610cc657600080fd5b506001600160a01b038135169060200135612620565b348015610ce857600080fd5b5061033660048036036040811015610cff57600080fd5b506001600160a01b038135169060200135612688565b348015610d2157600080fd5b5061043761269c565b348015610d3657600080fd5b5061043760048036036020811015610d4d57600080fd5b50356001600160a01b03166126a3565b348015610d6957600080fd5b50610e97600480360360a0811015610d8057600080fd5b6001600160a01b038235811692602081013590911691810190606081016040820135640100000000811115610db457600080fd5b820183602082011115610dc657600080fd5b80359060200191846020830284011164010000000083111715610de857600080fd5b919390929091602081019035640100000000811115610e0657600080fd5b820183602082011115610e1857600080fd5b80359060200191846020830284011164010000000083111715610e3a57600080fd5b919390929091602081019035640100000000811115610e5857600080fd5b820183602082011115610e6a57600080fd5b80359060200191846001830284011164010000000083111715610e8c57600080fd5b509092509050612707565b604080516001600160e01b03199092168252519081900360200190f35b348015610ec057600080fd5b5061063b600480360360c0811015610ed757600080fd5b506001600160a01b038135169060208101359060408101359060ff6060820135169060808101359060a0013561279b565b348015610f1457600080fd5b5061045e612a29565b348015610f2957600080fd5b5061063b612a39565b348015610f3e57600080fd5b5061043760048036036040811015610f5557600080fd5b506001600160a01b0381358116916020013516612c6c565b348015610f7957600080fd5b50610437612c97565b348015610f8e57600080fd5b5061063b60048036036020811015610fa557600080fd5b50356001600160a01b0316612cbb565b348015610fc157600080fd5b50610ff460048036036040811015610fd857600080fd5b5080356001600160a01b0316906020013563ffffffff16612e0f565b6040805163ffffffff909316835260208301919091528051918290030190f35b34801561102057600080fd5b50610e97600480360360a081101561103757600080fd5b6001600160a01b03823581169260208101359091169160408201359160608101359181019060a08101608082013564010000000081111561107757600080fd5b82018360208201111561108957600080fd5b803590602001918460018302840111640100000000831117156110ab57600080fd5b509092509050612e3c565b3480156110c257600080fd5b5061063b600480360360208110156110d957600080fd5b50356001600160a01b0316612ece565b3480156110f557600080fd5b5061063b6004803603602081101561110c57600080fd5b50356001600160a01b0316612fe3565b6001600160e01b03191660009081526001602052604090205460ff1690565b6101335460ff1681565b609a8054604080516020601f60026000196101006001881615020190951694909404938401819004810282018101909252828152606093909290918301828280156111d15780601f106111a6576101008083540402835291602001916111d1565b820191906000526020600020905b8154815290600101906020018083116111b457829003601f168201915b5050505050905090565b60006111ef6111e86132fd565b8484613301565b5060015b92915050565b60995490565b6101335461010090046001600160a01b031681565b610135546001600160a01b031681565b7f8cad95687ba82c2ce50e74f7b754645e5117c3a5bec8151c0726d5857980a86681565b60006112558484846133ed565b6112c5846112616132fd565b6112c0856040518060600160405280602881526020016145a1602891396001600160a01b038a1660009081526098602052604081209061129f6132fd565b6001600160a01b03168152602081019190915260400160002054919061354a565b613301565b5060019392505050565b6101316020526000908152604090208054600182015460028301546003909301546001600160a01b0390921692909184565b609c5460ff1690565b6101335461010090046001600160a01b031633146113595760405162461bcd60e51b815260040180806020018281038252602d815260200180614442602d913960400191505060405180910390fd5b60328311156113995760405162461bcd60e51b815260040180806020018281038252603c81526020018061468c603c913960400191505060405180910390fd5b60005b60328160ff1610156115695760ff81168414156113b857611569565b61013660009054906101000a90046001600160a01b03166001600160a01b03166369acf34c6040518163ffffffff1660e01b815260040160206040518083038186803b15801561140757600080fd5b505afa15801561141b573d6000803e3d6000fd5b505050506040513d602081101561143157600080fd5b50516001600160a01b031663920605f530878760ff861681811061145157fe5b905060200201356040518363ffffffff1660e01b815260040180836001600160a01b031681526020018281526020019250505060206040518083038186803b15801561149c57600080fd5b505afa1580156114b0573d6000803e3d6000fd5b505050506040513d60208110156114c657600080fd5b50511561151a576040805162461bcd60e51b815260206004820152601d60248201527f436f6e7665727465723a20416c7265616479206f6e2061756374696f6e000000604482015290519081900360640190fd5b82828260ff1681811061152957fe5b90506020020135610131600087878560ff1681811061154457fe5b602090810292909201358352508101919091526040016000206003015560010161139c565b50838360405180838360200280828437808301925050509250505060405180910390207f97164954f719119ef6a412855f8ca52a994c015f6fe21ed0a2d9da41bad91e5d838360405180806020018281038252848482818152602001925060200280828437600083820152604051601f909101601f19169092018290039550909350505050a250505050565b6101335461010090046001600160a01b031633146116445760405162461bcd60e51b81526004018080602001828103825260228152602001806144206022913960400191505060405180910390fd5b60328611156116845760405162461bcd60e51b815260040180806020018281038252603c8152602001806144e5603c913960400191505060405180910390fd5b856116c05760405162461bcd60e51b815260040180806020018281038252603181526020018061465b6031913960400191505060405180910390fd5b6116d181636cdb3d1360e11b6135e1565b1561192657806001600160a01b0316632eb2c2d633308a8a8a8a604051806040016040528060048152602001634a434d5960e01b8152506040518863ffffffff1660e01b815260040180886001600160a01b03168152602001876001600160a01b031681526020018060200180602001806020018481038452898982818152602001925060200280828437600083820152601f01601f191690910185810384528781526020908101915088908802808284376000838201819052601f909101601f191690920186810384528751815287516020918201939189019250908190849084905b838110156117cd5781810151838201526020016117b5565b50505050905090810190601f1680156117fa5780820380516001836020036101000a031916815260200191505b509a5050505050505050505050600060405180830381600087803b15801561182157600080fd5b505af1158015611835573d6000803e3d6000fd5b5050505060005b60328160ff1610156119205760ff811687141561185857611920565b6040518060800160405280836001600160a01b0316815260200189898460ff1681811061188157fe5b90506020020135815260200187878460ff1681811061189c57fe5b90506020020135815260200185858460ff168181106118b757fe5b602090810292909201359092526101328054600180820190925560009081526101318352604090819020855181546001600160a01b0319166001600160a01b0390911617815592850151838301558401516002830155606090930151600390910155500161183c565b50611a90565b60005b60328160ff161015611a8e5760ff811687141561194557611a8e565b816001600160a01b03166323b872dd33308b8b8660ff1681811061196557fe5b905060200201356040518463ffffffff1660e01b815260040180846001600160a01b03168152602001836001600160a01b031681526020018281526020019350505050600060405180830381600087803b1580156119c257600080fd5b505af11580156119d6573d6000803e3d6000fd5b505050506040518060800160405280836001600160a01b0316815260200189898460ff16818110611a0357fe5b9050602002013581526020016001815260200185858460ff16818110611a2557fe5b602090810292909201359092526101328054600180820190925560009081526101318352604090819020855181546001600160a01b0319166001600160a01b03909116178155928501518383015584015160028301556060909301516003909101555001611929565b505b806001600160a01b03167fc615390e969ae878213a6f712c759d6ee2cb9fdf899bd7679eddfea3fd70e2508888888888886040518080602001806020018060200184810384528a8a82818152602001925060200280828437600083820152601f01601f19169091018581038452888152602090810191508990890280828437600083820152601f01601f19169091018581038352868152602090810191508790870280828437600083820152604051601f909101601f19169092018290039b50909950505050505050505050a250505050505050565b6101345481565b60006111ef611b7a6132fd565b846112c08560986000611b8b6132fd565b6001600160a01b03908116825260208083019390935260409182016000908120918c1681529252902054906135fd565b611bcc611bc66132fd565b82613657565b50565b6001600160a01b03908116600090815260fb60205260409020541690565b611bcc3382613753565b61013654604080517f69acf34c00000000000000000000000000000000000000000000000000000000815290516000926001600160a01b0316916369acf34c916004808301926020929190829003018186803b158015611c5657600080fd5b505afa158015611c6a573d6000803e3d6000fd5b505050506040513d6020811015611c8057600080fd5b50516001600160a01b03163314611cde576040805162461bcd60e51b815260206004820152601e60248201527f436f6e7665727465723a204e6f742061756374696f6e2068616e646c65720000604482015290519081900360640190fd5b60008381526101316020526040902054611d08906001600160a01b0316636cdb3d1360e11b6135e1565b15611e3557600083815261013160205260408082208054600182015460029092015492517ff242432a00000000000000000000000000000000000000000000000000000000815230600482018181526001600160a01b038981166024850152604484018690526064840187905260a0608485019081526060805160a487015280519099929096169763f242432a9794968c9691948b9490939260c401916080918190849084905b83811015611dc7578181015183820152602001611daf565b50505050905090810190601f168015611df45780820380516001836020036101000a031916815260200191505b509650505050505050600060405180830381600087803b158015611e1757600080fd5b505af1158015611e2b573d6000803e3d6000fd5b50505050506111ef565b6000838152610131602052604080822080546001909101548251632142170760e11b81523060048201526001600160a01b038781166024830152604482019290925292519116926342842e0e926064808201939182900301818387803b158015611e9e57600080fd5b505af1158015611eb2573d6000803e3d6000fd5b5050505050600192915050565b610135546000906060906001600160a01b03163314611f0f5760405162461bcd60e51b81526004018080602001828103825260378152602001806147486037913960400191505060405180910390fd5b856001600160a01b0316858585604051808383808284376040519201945060009350909150508083038185875af1925050503d8060008114611f6d576040519150601f19603f3d011682016040523d82523d6000602084013e611f72565b606091505b509150915094509492505050565b60fd6020526000908152604090205463ffffffff1681565b6001600160a01b031660009081526097602052604090205490565b611fbb6132fd565b6001600160a01b0316611fcc612352565b6001600160a01b031614612027576040805162461bcd60e51b815260206004820181905260248201527f4f776e61626c653a2063616c6c6572206973206e6f7420746865206f776e6572604482015290519081900360640190fd5b60ff546040516000916001600160a01b0316907f8be0079c531659141344cd1fd0a4f28419497f9722a3daafe3b4186f6b6457e0908390a360ff80546001600160a01b0319169055565b610136546001600160a01b031633146120bb5760405162461bcd60e51b815260040180806020018281038252603181526020018061454f6031913960400191505060405180910390fd5b61013580546001600160a01b0319166001600160a01b0392909216919091179055565b600043821061211e5760405162461bcd60e51b81526004018080602001828103825260278152602001806146c86027913960400191505060405180910390fd5b6001600160a01b038316600090815260fd602052604090205463ffffffff168061214c5760009150506111f3565b6001600160a01b038416600090815260fc6020908152604080832063ffffffff6000198601811685529252909120541683106121bb576001600160a01b038416600090815260fc602090815260408083206000199490940163ffffffff168352929052206001015490506111f3565b6001600160a01b038416600090815260fc6020908152604080832083805290915290205463ffffffff168310156121f65760009150506111f3565b600060001982015b8163ffffffff168163ffffffff1611156122af57600282820363ffffffff1604810361222861426f565b506001600160a01b038716600090815260fc6020908152604080832063ffffffff80861685529083529281902081518083019092528054909316808252600190930154918101919091529087141561228a576020015194506111f39350505050565b805163ffffffff168711156122a1578193506122a8565b6001820392505b50506121fe565b506001600160a01b038516600090815260fc6020908152604080832063ffffffff9094168352929052206001015491505092915050565b600061231d826040518060600160405280602481526020016145c960249139612316866123116132fd565b612c6c565b919061354a565b90506123318361232b6132fd565b83613301565b61233b8383613657565b505050565b60fe6020526000908152604090205481565b60ff546001600160a01b031690565b60008054610100900460ff168061237b575061237b6137e8565b80612389575060005460ff16155b6123c45760405162461bcd60e51b815260040180806020018281038252602e815260200180614521602e913960400191505060405180910390fd5b600054610100900460ff161580156123ef576000805460ff1961ff0019909116610100171660011790555b6123f76137f9565b61240186866138aa565b610133805474ffffffffffffffffffffffffffffffffffffffff0019166101006001600160a01b03878116919091029190911790915561013680546001600160a01b0319168583161790819055604080517f762ca1c80000000000000000000000000000000000000000000000000000000081529051919092169163762ca1c8916004808301926020929190829003018186803b1580156124a157600080fd5b505afa1580156124b5573d6000803e3d6000fd5b505050506040513d60208110156124cb57600080fd5b5051610134556001915080156124e7576000805461ff00191690555b50949350505050565b609b8054604080516020601f60026000196101006001881615020190951694909404938401819004810282018101909252828152606093909290918301828280156111d15780601f106111a6576101008083540402835291602001916111d1565b61013660009054906101000a90046001600160a01b03166001600160a01b03166369acf34c6040518163ffffffff1660e01b815260040160206040518083038186803b1580156125a057600080fd5b505afa1580156125b4573d6000803e3d6000fd5b505050506040513d60208110156125ca57600080fd5b50516001600160a01b031633146126125760405162461bcd60e51b815260040180806020018281038252602881526020018061460e6028913960400191505060405180910390fd5b61261c8282613657565b5050565b60006111ef61262d6132fd565b846112c08560405180606001604052806025815260200161482660259139609860006126576132fd565b6001600160a01b03908116825260208083019390935260409182016000908120918d1681529252902054919061354a565b60006111ef6126956132fd565b84846133ed565b6101325481565b6001600160a01b038116600090815260fd602052604081205463ffffffff16806126ce576000612700565b6001600160a01b038316600090815260fc6020908152604080832063ffffffff60001986011684529091529020600101545b9392505050565b60408051808201825260048152634a434d5960e01b602090910152516000907feed964cd3ee5613603b1b7b354cb5c8fd82ad356c751242d3c986feb1c086de390849084908083838082843780830192505050925050506040518091039020141561278f57507fbc197c81000000000000000000000000000000000000000000000000000000005b98975050505050505050565b60007f8cad95687ba82c2ce50e74f7b754645e5117c3a5bec8151c0726d5857980a8666127c6611145565b805190602001206127d561395f565b60408051602080820195909552808201939093526060830191909152306080808401919091528151808403909101815260a0830182528051908401207fe48329057bfd03d55e49b547132e39cffd9c1820ad7b9d4c5307691425d15adf60c08401526001600160a01b038b1660e084015261010083018a90526101208084018a905282518085039091018152610140840183528051908501207f19010000000000000000000000000000000000000000000000000000000000006101608501526101628401829052610182808501829052835180860390910181526101a285018085528151918701919091206000918290526101c2860180865281905260ff8b166101e287015261020286018a90526102228601899052935192965090949293909260019261024280840193601f198301929081900390910190855afa158015612923573d6000803e3d6000fd5b5050604051601f1901519150506001600160a01b0381166129755760405162461bcd60e51b815260040180806020018281038252602681526020018061446f6026913960400191505060405180910390fd5b6001600160a01b038116600090815260fe6020526040902080546001810190915589146129d35760405162461bcd60e51b81526004018080602001828103825260228152602001806148046022913960400191505060405180910390fd5b87421115612a125760405162461bcd60e51b81526004018080602001828103825260268152602001806147aa6026913960400191505060405180910390fd5b612a1c818b613753565b505050505b505050505050565b610136546001600160a01b031681565b6101335461010090046001600160a01b03163314612a885760405162461bcd60e51b815260040180806020018281038252602b81526020018061477f602b913960400191505060405180910390fd5b6101335460ff1615612acb5760405162461bcd60e51b81526004018080602001828103825260228152602001806143b66022913960400191505060405180910390fd5b610133805460ff1916600117905561013654604080517f017e7e5800000000000000000000000000000000000000000000000000000000815290516000926001600160a01b03169163017e7e58916004808301926020929190829003018186803b158015612b3857600080fd5b505afa158015612b4c573d6000803e3d6000fd5b505050506040513d6020811015612b6257600080fd5b5051905060006001600160a01b03821615612c195761013654604080517f9a36f9320000000000000000000000000000000000000000000000000000000081529051612c0d926001600160a01b031691639a36f932916004808301926020929190829003018186803b158015612bd757600080fd5b505afa158015612beb573d6000803e3d6000fd5b505050506040513d6020811015612c0157600080fd5b50516101345490613963565b9050612c1982826139ca565b61013454610133549082900390612c3e9061010090046001600160a01b0316826139ca565b6040517fee1d8c0a784b4733dc46e6e61233f85c6b4e41244a61fe29f41a84d3f8a3d01c90600090a1505050565b6001600160a01b03918216600090815260986020908152604080832093909416825291909152205490565b7fe48329057bfd03d55e49b547132e39cffd9c1820ad7b9d4c5307691425d15adf81565b6101335460ff16612cfd5760405162461bcd60e51b815260040180806020018281038252602a8152602001806144bb602a913960400191505060405180910390fd5b61013660009054906101000a90046001600160a01b03166001600160a01b0316638a4adf246040518163ffffffff1660e01b815260040160206040518083038186803b158015612d4c57600080fd5b505afa158015612d60573d6000803e3d6000fd5b505050506040513d6020811015612d7657600080fd5b50516001600160a01b0316331480612d9e57506101335461010090046001600160a01b031633145b612dd95760405162461bcd60e51b815260040180806020018281038252602681526020018061436e6026913960400191505060405180910390fd5b61013380546001600160a01b039092166101000274ffffffffffffffffffffffffffffffffffffffff0019909216919091179055565b60fc6020908152600092835260408084209091529082529020805460019091015463ffffffff9091169082565b60408051808201825260048152634a434d5960e01b602090910152516000907feed964cd3ee5613603b1b7b354cb5c8fd82ad356c751242d3c986feb1c086de3908490849080838380828437808301925050509250505060405180910390201415612ec457507ff23a6e61000000000000000000000000000000000000000000000000000000005b9695505050505050565b612ed66132fd565b6001600160a01b0316612ee7612352565b6001600160a01b031614612f42576040805162461bcd60e51b815260206004820181905260248201527f4f776e61626c653a2063616c6c6572206973206e6f7420746865206f776e6572604482015290519081900360640190fd5b6001600160a01b038116612f875760405162461bcd60e51b81526004018080602001828103825260268152602001806143d86026913960400191505060405180910390fd5b60ff546040516001600160a01b038084169216907f8be0079c531659141344cd1fd0a4f28419497f9722a3daafe3b4186f6b6457e090600090a360ff80546001600160a01b0319166001600160a01b0392909216919091179055565b6101335460ff16156130265760405162461bcd60e51b81526004018080602001828103825260358152602001806146ef6035913960400191505060405180910390fd5b6101335461010090046001600160a01b031633146130755760405162461bcd60e51b81526004018080602001828103825260218152602001806145806021913960400191505060405180910390fd5b6101325460009060605b600082118015613092575060328360ff16105b156132c85761309f614286565b50600019820160009081526101316020908152604091829020825160808101845281546001600160a01b031680825260018301549382019390935260028201549381019390935260030154606083015261310090636cdb3d1360e11b6135e1565b156132085780600001516001600160a01b031663f242432a308784602001518560400151876040518663ffffffff1660e01b815260040180866001600160a01b03168152602001856001600160a01b0316815260200184815260200183815260200180602001828103825283818151815260200191508051906020019080838360005b8381101561319b578181015183820152602001613183565b50505050905090810190601f1680156131c85780820380516001836020036101000a031916815260200191505b509650505050505050600060405180830381600087803b1580156131eb57600080fd5b505af11580156131ff573d6000803e3d6000fd5b50505050613281565b8051602082015160408051632142170760e11b81523060048201526001600160a01b0389811660248301526044820193909352905191909216916342842e0e91606480830192600092919082900301818387803b15801561326857600080fd5b505af115801561327c573d6000803e3d6000fd5b505050505b5060001990910160008181526101316020526040812080546001600160a01b031916815560018181018390556002820183905560039091019190915592909201919061307f565b6101328290556040517f8616bbbbad963e4e65b1366f1d75dfb63f9e9704bbbf91fb01bec70849906cf790600090a150505050565b3390565b6001600160a01b0383166133465760405162461bcd60e51b81526004018080602001828103825260248152602001806147246024913960400191505060405180910390fd5b6001600160a01b03821661338b5760405162461bcd60e51b81526004018080602001828103825260228152602001806143fe6022913960400191505060405180910390fd5b6001600160a01b03808416600081815260986020908152604080832094871680845294825291829020859055815185815291517f8c5be1e5ebec7d5bd14f71427d1e84f3dd0314c0f7b2291e5b200ac8c7c3b9259281900390910190a3505050565b6001600160a01b0383166134325760405162461bcd60e51b81526004018080602001828103825260258152602001806146366025913960400191505060405180910390fd5b6001600160a01b0382166134775760405162461bcd60e51b815260040180806020018281038252602381526020018061434b6023913960400191505060405180910390fd5b613482838383613abc565b6134bf81604051806060016040528060268152602001614495602691396001600160a01b038616600090815260976020526040902054919061354a565b6001600160a01b0380851660009081526097602052604080822093909355908416815220546134ee90826135fd565b6001600160a01b0380841660008181526097602090815260409182902094909455805185815290519193928716927fddf252ad1be2c89b69c2b068fc378daa952ba7f163c4a11628f55a4df523b3ef92918290030190a3505050565b600081848411156135d95760405162461bcd60e51b81526004018080602001828103825283818151815260200191508051906020019080838360005b8381101561359e578181015183820152602001613586565b50505050905090810190601f1680156135cb5780820380516001836020036101000a031916815260200191505b509250505060405180910390fd5b505050900390565b60006135ec83613af9565b801561270057506127008383613b2c565b600082820183811015612700576040805162461bcd60e51b815260206004820152601b60248201527f536166654d6174683a206164646974696f6e206f766572666c6f770000000000604482015290519081900360640190fd5b6001600160a01b03821661369c5760405162461bcd60e51b81526004018080602001828103825260218152602001806145ed6021913960400191505060405180910390fd5b6136a882600083613abc565b6136e581604051806060016040528060228152602001614394602291396001600160a01b038516600090815260976020526040902054919061354a565b6001600160a01b03831660009081526097602052604090205560995461370b9082613b52565b6099556040805182815290516000916001600160a01b038516917fddf252ad1be2c89b69c2b068fc378daa952ba7f163c4a11628f55a4df523b3ef9181900360200190a35050565b6001600160a01b03808316600090815260fb60205260408120549091169061377a84611f98565b6001600160a01b03858116600081815260fb602052604080822080546001600160a01b031916898616908117909155905194955093928616927f3134e8a2e6d97e929a7e54011ea5485d7d196dd5f0ba4d4ef95803e8e3fc257f9190a46137e2828483613baf565b50505050565b60006137f330613cec565b15905090565b600054610100900460ff168061381257506138126137e8565b80613820575060005460ff16155b61385b5760405162461bcd60e51b815260040180806020018281038252602e815260200180614521602e913960400191505060405180910390fd5b600054610100900460ff16158015613886576000805460ff1961ff0019909116610100171660011790555b61388e613cf2565b613896613d92565b8015611bcc576000805461ff001916905550565b600054610100900460ff16806138c357506138c36137e8565b806138d1575060005460ff16155b61390c5760405162461bcd60e51b815260040180806020018281038252602e815260200180614521602e913960400191505060405180910390fd5b600054610100900460ff16158015613937576000805460ff1961ff0019909116610100171660011790555b61393f613cf2565b6139498383613e8b565b801561233b576000805461ff0019169055505050565b4690565b60008082116139b9576040805162461bcd60e51b815260206004820152601a60248201527f536166654d6174683a206469766973696f6e206279207a65726f000000000000604482015290519081900360640190fd5b8183816139c257fe5b049392505050565b6001600160a01b038216613a25576040805162461bcd60e51b815260206004820152601f60248201527f45524332303a206d696e7420746f20746865207a65726f206164647265737300604482015290519081900360640190fd5b613a3160008383613abc565b609954613a3e90826135fd565b6099556001600160a01b038216600090815260976020526040902054613a6490826135fd565b6001600160a01b03831660008181526097602090815260408083209490945583518581529351929391927fddf252ad1be2c89b69c2b068fc378daa952ba7f163c4a11628f55a4df523b3ef9281900390910190a35050565b613ac783838361233b565b6001600160a01b03808416600090815260fb602052604080822054858416835291205461233b92918216911683613baf565b6000613b0c826301ffc9a760e01b613b2c565b80156111f35750613b25826001600160e01b0319613b2c565b1592915050565b6000806000613b3b8585613f63565b91509150818015613b495750805b95945050505050565b600082821115613ba9576040805162461bcd60e51b815260206004820152601e60248201527f536166654d6174683a207375627472616374696f6e206f766572666c6f770000604482015290519081900360640190fd5b50900390565b816001600160a01b0316836001600160a01b031614158015613bd15750600081115b1561233b576001600160a01b03831615613c63576001600160a01b038316600090815260fd602052604081205463ffffffff169081613c11576000613c43565b6001600160a01b038516600090815260fc6020908152604080832063ffffffff60001987011684529091529020600101545b90506000613c518285613b52565b9050613c5f868484846140ac565b5050505b6001600160a01b0382161561233b576001600160a01b038216600090815260fd602052604081205463ffffffff169081613c9e576000613cd0565b6001600160a01b038416600090815260fc6020908152604080832063ffffffff60001987011684529091529020600101545b90506000613cde82856135fd565b9050612a21858484846140ac565b3b151590565b600054610100900460ff1680613d0b5750613d0b6137e8565b80613d19575060005460ff16155b613d545760405162461bcd60e51b815260040180806020018281038252602e815260200180614521602e913960400191505060405180910390fd5b600054610100900460ff16158015613896576000805460ff1961ff0019909116610100171660011790558015611bcc576000805461ff001916905550565b600054610100900460ff1680613dab5750613dab6137e8565b80613db9575060005460ff16155b613df45760405162461bcd60e51b815260040180806020018281038252602e815260200180614521602e913960400191505060405180910390fd5b600054610100900460ff16158015613e1f576000805460ff1961ff0019909116610100171660011790555b6000613e296132fd565b60ff80546001600160a01b0319166001600160a01b038316908117909155604051919250906000907f8be0079c531659141344cd1fd0a4f28419497f9722a3daafe3b4186f6b6457e0908290a3508015611bcc576000805461ff001916905550565b600054610100900460ff1680613ea45750613ea46137e8565b80613eb2575060005460ff16155b613eed5760405162461bcd60e51b815260040180806020018281038252602e815260200180614521602e913960400191505060405180910390fd5b600054610100900460ff16158015613f18576000805460ff1961ff0019909116610100171660011790555b8251613f2b90609a9060208601906142b7565b508151613f3f90609b9060208501906142b7565b50609c805460ff19166012179055801561233b576000805461ff0019169055505050565b604080516001600160e01b0319831660248083019190915282518083039091018152604490910182526020810180517bffffffffffffffffffffffffffffffffffffffffffffffffffffffff166301ffc9a760e01b1781529151815160009384939284926060926001600160a01b038a169261753092879282918083835b602083106140005780518252601f199092019160209182019101613fe1565b6001836020036101000a0380198251168184511680821785525050505050509050019150506000604051808303818686fa925050503d8060008114614061576040519150601f19603f3d011682016040523d82523d6000602084013e614066565b606091505b509150915060208151101561408457600080945094505050506140a5565b8181806020019051602081101561409a57600080fd5b505190955093505050505b9250929050565b60006140d0436040518060600160405280603481526020016147d060349139614211565b905060008463ffffffff1611801561411957506001600160a01b038516600090815260fc6020908152604080832063ffffffff6000198901811685529252909120548282169116145b15614156576001600160a01b038516600090815260fc6020908152604080832063ffffffff600019890116845290915290206001018290556141c7565b60408051808201825263ffffffff808416825260208083018681526001600160a01b038a16600081815260fc84528681208b8616825284528681209551865490861663ffffffff19918216178755925160019687015590815260fd9092529390208054928801909116919092161790555b604080518481526020810184905281516001600160a01b038816927fdec2bacdd2f05b59de34da9b523dff8be42e5e38e818c82fdb0bae774387a724928290030190a25050505050565b60008164010000000084106142675760405162461bcd60e51b815260206004820181815283516024840152835190928392604490910191908501908083836000831561359e578181015183820152602001613586565b509192915050565b604080518082019091526000808252602082015290565b604051806080016040528060006001600160a01b031681526020016000815260200160008152602001600081525090565b828054600181600116156101000203166002900490600052602060002090601f016020900481019282601f106142f857805160ff1916838001178555614325565b82800160010185558215614325579182015b8281111561432557825182559160200191906001019061430a565b50614331929150614335565b5090565b5b80821115614331576000815560010161433656fe45524332303a207472616e7366657220746f20746865207a65726f2061646472657373436f6e7665727465723a204e6f74207661756c74206d616e61676572206f722069737375657245524332303a206275726e20616d6f756e7420657863656564732062616c616e6365436f6e7665727465723a20546f6b656e20697320616c7265616479206163746976654f776e61626c653a206e6577206f776e657220697320746865207a65726f206164647265737345524332303a20617070726f766520746f20746865207a65726f2061646472657373436f6e7665727465723a204f6e6c79206973737565722063616e206465706f736974436f6e7665727465723a204f6e6c79206973737565722063616e20736574207472696767657220707269636573554e49433a3a64656c656761746542795369673a20696e76616c6964207369676e617475726545524332303a207472616e7366657220616d6f756e7420657863656564732062616c616e6365436f6e7665727465723a20546f6b656e732068617665206e6f74206265656e2069737375656420796574436f6e7665727465723a2041206d6178696d756d206f6620353020746f6b656e732063616e206265206465706f736974656420696e206f6e6520676f496e697469616c697a61626c653a20636f6e747261637420697320616c726561647920696e697469616c697a6564436f6e7665727465723a204f6e6c7920666163746f72792063616e2073657420636f6e76657274657254696d654c6f636b436f6e7665727465723a204f6e6c79206973737565722063616e20726566756e6445524332303a207472616e7366657220616d6f756e74206578636565647320616c6c6f77616e636545524332303a206275726e20616d6f756e74206578636565647320616c6c6f77616e636545524332303a206275726e2066726f6d20746865207a65726f2061646472657373436f6e7665727465723a204f6e6c792061756374696f6e2068616e646c65722063616e206275726e45524332303a207472616e736665722066726f6d20746865207a65726f2061646472657373436f6e7665727465723a20596f75206d7573742073706563696679206174206c65617374206f6e6520746f6b656e204944436f6e7665727465723a2041206d6178696d756d206f662035302074726967676572207072696365732063616e20626520736574206174206f6e6365554e49433a3a6765745072696f72566f7465733a206e6f74207965742064657465726d696e6564436f6e7665727465723a20436f6e747261637420697320616c726561647920616374697665202d2063616e6e6f7420726566756e6445524332303a20617070726f76652066726f6d20746865207a65726f2061646472657373436f6e7665727465723a2043616c6c6572206973206e6f742074686520636f6e76657274657254696d654c6f636b20636f6e7472616374436f6e7665727465723a204f6e6c79206973737565722063616e2069737375652074686520746f6b656e73554e49433a3a64656c656761746542795369673a207369676e61747572652065787069726564554e49433a3a5f7772697465436865636b706f696e743a20626c6f636b206e756d62657220657863656564732033322062697473554e49433a3a64656c656761746542795369673a20696e76616c6964206e6f6e636545524332303a2064656372656173656420616c6c6f77616e63652062656c6f77207a65726fa2646970667358221220a7853c3ce286b5d7fa5c34c948b4d9deee9a1102ab94d46a0abdf11c059660d164736f6c634300060c0033",
  "devdoc": {
    "kind": "dev",
    "methods": {
      "allowance(address,address)": {
        "details": "See {IERC20-allowance}."
      },
      "approve(address,uint256)": {
        "details": "See {IERC20-approve}. Requirements: - `spender` cannot be the zero address."
      },
      "balanceOf(address)": {
        "details": "See {IERC20-balanceOf}."
      },
      "burn(uint256)": {
        "details": "Destroys `amount` tokens from the caller. See {ERC20-_burn}."
      },
      "burnFrom(address,uint256)": {
        "details": "Destroys `amount` tokens from `account`, deducting from the caller's allowance. See {ERC20-_burn} and {ERC20-allowance}. Requirements: - the caller must have allowance for ``accounts``'s tokens of at least `amount`."
      },
      "decimals()": {
        "details": "Returns the number of decimals used to get its user representation. For example, if `decimals` equals `2`, a balance of `505` tokens should be displayed to a user as `5,05` (`505 / 10 ** 2`). Tokens usually opt for a value of 18, imitating the relationship between Ether and Wei. This is the value {ERC20} uses, unless {_setupDecimals} is called. NOTE: This information is only used for _display_ purposes: it in no way affects any of the arithmetic of the contract, including {IERC20-balanceOf} and {IERC20-transfer}."
      },
      "decreaseAllowance(address,uint256)": {
        "details": "Atomically decreases the allowance granted to `spender` by the caller. This is an alternative to {approve} that can be used as a mitigation for problems described in {IERC20-approve}. Emits an {Approval} event indicating the updated allowance. Requirements: - `spender` cannot be the zero address. - `spender` must have allowance for the caller of at least `subtractedValue`."
      },
      "delegate(address)": {
        "params": {
          "delegatee": "The address to delegate votes to"
        }
      },
      "delegateBySig(address,uint256,uint256,uint8,bytes32,bytes32)": {
        "params": {
          "delegatee": "The address to delegate votes to",
          "expiry": "The time at which to expire the signature",
          "nonce": "The contract state required to match the signature",
          "r": "Half of the ECDSA signature pair",
          "s": "Half of the ECDSA signature pair",
          "v": "The recovery byte of the signature"
        }
      },
      "delegates(address)": {
        "params": {
          "delegator": "The address to get delegatee for"
        }
      },
      "forwardCall(address,uint256,bytes)": {
        "details": "implements the proxy transaction used by {ConverterTimeLock-executeTransaction}"
      },
      "getCurrentVotes(address)": {
        "params": {
          "account": "The address to get votes balance"
        },
        "returns": {
          "_0": "The number of current votes for `account`"
        }
      },
      "getPriorVotes(address,uint256)": {
        "details": "Block number must be a finalized block or else this function will revert to prevent misinformation.",
        "params": {
          "account": "The address of the account to check",
          "blockNumber": "The block number to get the vote balance at"
        },
        "returns": {
          "_0": "The number of votes the account had as of the given block"
        }
      },
      "increaseAllowance(address,uint256)": {
        "details": "Atomically increases the allowance granted to `spender` by the caller. This is an alternative to {approve} that can be used as a mitigation for problems described in {IERC20-approve}. Emits an {Approval} event indicating the updated allowance. Requirements: - `spender` cannot be the zero address."
      },
      "name()": {
        "details": "Returns the name of the token."
      },
      "owner()": {
        "details": "Returns the address of the current owner."
      },
      "renounceOwnership()": {
        "details": "Leaves the contract without owner. It will not be possible to call `onlyOwner` functions anymore. Can only be called by the current owner. NOTE: Renouncing ownership will leave the contract without an owner, thereby removing any functionality that is only available to the owner."
      },
      "supportsInterface(bytes4)": {
        "details": "See {IERC165-supportsInterface}. Time complexity O(1), guaranteed to always use less than 30 000 gas."
      },
      "symbol()": {
        "details": "Returns the symbol of the token, usually a shorter version of the name."
      },
      "totalSupply()": {
        "details": "See {IERC20-totalSupply}."
      },
      "transfer(address,uint256)": {
        "details": "See {IERC20-transfer}. Requirements: - `recipient` cannot be the zero address. - the caller must have a balance of at least `amount`."
      },
      "transferFrom(address,address,uint256)": {
        "details": "See {IERC20-transferFrom}. Emits an {Approval} event indicating the updated allowance. This is not required by the EIP. See the note at the beginning of {ERC20}. Requirements: - `sender` and `recipient` cannot be the zero address. - `sender` must have a balance of at least `amount`. - the caller must have allowance for ``sender``'s tokens of at least `amount`."
      },
      "transferOwnership(address)": {
        "details": "Transfers ownership of the contract to a new account (`newOwner`). Can only be called by the current owner."
      }
    },
    "version": 1
  },
  "userdoc": {
    "events": {
      "DelegateChanged(address,address,address)": {
        "notice": "An event thats emitted when an account changes its delegate"
      },
      "DelegateVotesChanged(address,uint256,uint256)": {
        "notice": "An event thats emitted when a delegate account's vote balance changes"
      }
    },
    "kind": "user",
    "methods": {
      "DELEGATION_TYPEHASH()": {
        "notice": "The EIP-712 typehash for the delegation struct used by the contract"
      },
      "DOMAIN_TYPEHASH()": {
        "notice": "The EIP-712 typehash for the contract's domain"
      },
      "checkpoints(address,uint32)": {
        "notice": "A record of votes checkpoints for each account, by index"
      },
      "delegate(address)": {
        "notice": "Delegate votes from `msg.sender` to `delegatee`"
      },
      "delegateBySig(address,uint256,uint256,uint8,bytes32,bytes32)": {
        "notice": "Delegates votes from signatory to `delegatee`"
      },
      "delegates(address)": {
        "notice": "Delegate votes from `msg.sender` to `delegatee`"
      },
      "getCurrentVotes(address)": {
        "notice": "Gets the current votes balance for `account`"
      },
      "getPriorVotes(address,uint256)": {
        "notice": "Determine the prior number of votes for an account as of a block number"
      },
      "nonces(address)": {
        "notice": "A record of states for signing / validating signatures"
      },
      "numCheckpoints(address)": {
        "notice": "The number of checkpoints for each account"
      },
      "onERC1155Received(address,address,uint256,uint256,bytes)": {
        "notice": "ERC1155 Token ERC1155Receiver"
      }
    },
    "version": 1
  },
  "storageLayout": {
    "storage": [
      {
        "astId": 807,
        "contract": "contracts/Converter.sol:Converter",
        "label": "_initialized",
        "offset": 0,
        "slot": "0",
        "type": "t_bool"
      },
      {
        "astId": 810,
        "contract": "contracts/Converter.sol:Converter",
        "label": "_initializing",
        "offset": 1,
        "slot": "0",
        "type": "t_bool"
      },
      {
        "astId": 375,
        "contract": "contracts/Converter.sol:Converter",
        "label": "_supportedInterfaces",
        "offset": 0,
        "slot": "1",
        "type": "t_mapping(t_bytes4,t_bool)"
      },
      {
        "astId": 432,
        "contract": "contracts/Converter.sol:Converter",
        "label": "__gap",
        "offset": 0,
        "slot": "2",
        "type": "t_array(t_uint256)49_storage"
      },
      {
        "astId": 920,
        "contract": "contracts/Converter.sol:Converter",
        "label": "__gap",
        "offset": 0,
        "slot": "51",
        "type": "t_array(t_uint256)50_storage"
      },
      {
        "astId": 2393,
        "contract": "contracts/Converter.sol:Converter",
        "label": "__gap",
        "offset": 0,
        "slot": "101",
        "type": "t_array(t_uint256)50_storage"
      },
      {
        "astId": 1188,
        "contract": "contracts/Converter.sol:Converter",
        "label": "_balances",
        "offset": 0,
        "slot": "151",
        "type": "t_mapping(t_address,t_uint256)"
      },
      {
        "astId": 1194,
        "contract": "contracts/Converter.sol:Converter",
        "label": "_allowances",
        "offset": 0,
        "slot": "152",
        "type": "t_mapping(t_address,t_mapping(t_address,t_uint256))"
      },
      {
        "astId": 1196,
        "contract": "contracts/Converter.sol:Converter",
        "label": "_totalSupply",
        "offset": 0,
        "slot": "153",
        "type": "t_uint256"
      },
      {
        "astId": 1198,
        "contract": "contracts/Converter.sol:Converter",
        "label": "_name",
        "offset": 0,
        "slot": "154",
        "type": "t_string_storage"
      },
      {
        "astId": 1200,
        "contract": "contracts/Converter.sol:Converter",
        "label": "_symbol",
        "offset": 0,
        "slot": "155",
        "type": "t_string_storage"
      },
      {
        "astId": 1202,
        "contract": "contracts/Converter.sol:Converter",
        "label": "_decimals",
        "offset": 0,
        "slot": "156",
        "type": "t_uint8"
      },
      {
        "astId": 1697,
        "contract": "contracts/Converter.sol:Converter",
        "label": "__gap",
        "offset": 0,
        "slot": "157",
        "type": "t_array(t_uint256)44_storage"
      },
      {
        "astId": 1167,
        "contract": "contracts/Converter.sol:Converter",
        "label": "__gap",
        "offset": 0,
        "slot": "201",
        "type": "t_array(t_uint256)50_storage"
      },
      {
        "astId": 36610,
        "contract": "contracts/Converter.sol:Converter",
        "label": "_delegates",
        "offset": 0,
        "slot": "251",
        "type": "t_mapping(t_address,t_address)"
      },
      {
        "astId": 36622,
        "contract": "contracts/Converter.sol:Converter",
        "label": "checkpoints",
        "offset": 0,
        "slot": "252",
        "type": "t_mapping(t_address,t_mapping(t_uint32,t_struct(Checkpoint)36615_storage))"
      },
      {
        "astId": 36627,
        "contract": "contracts/Converter.sol:Converter",
        "label": "numCheckpoints",
        "offset": 0,
        "slot": "253",
        "type": "t_mapping(t_address,t_uint32)"
      },
      {
        "astId": 36644,
        "contract": "contracts/Converter.sol:Converter",
        "label": "nonces",
        "offset": 0,
        "slot": "254",
        "type": "t_mapping(t_address,t_uint256)"
      },
      {
        "astId": 10,
        "contract": "contracts/Converter.sol:Converter",
        "label": "_owner",
        "offset": 0,
        "slot": "255",
        "type": "t_address"
      },
      {
        "astId": 129,
        "contract": "contracts/Converter.sol:Converter",
        "label": "__gap",
        "offset": 0,
        "slot": "256",
        "type": "t_array(t_uint256)49_storage"
      },
      {
        "astId": 9550,
        "contract": "contracts/Converter.sol:Converter",
        "label": "nfts",
        "offset": 0,
        "slot": "305",
        "type": "t_mapping(t_uint256,t_struct(NFT)9546_storage)"
      },
      {
        "astId": 9553,
        "contract": "contracts/Converter.sol:Converter",
        "label": "currentNFTIndex",
        "offset": 0,
        "slot": "306",
        "type": "t_uint256"
      },
      {
        "astId": 9556,
        "contract": "contracts/Converter.sol:Converter",
        "label": "active",
        "offset": 0,
        "slot": "307",
        "type": "t_bool"
      },
      {
        "astId": 9558,
        "contract": "contracts/Converter.sol:Converter",
        "label": "issuer",
        "offset": 1,
        "slot": "307",
        "type": "t_address"
      },
      {
        "astId": 9560,
        "contract": "contracts/Converter.sol:Converter",
        "label": "cap",
        "offset": 0,
        "slot": "308",
        "type": "t_uint256"
      },
      {
        "astId": 9562,
        "contract": "contracts/Converter.sol:Converter",
        "label": "converterTimeLock",
        "offset": 0,
        "slot": "309",
        "type": "t_address"
      },
      {
        "astId": 9564,
        "contract": "contracts/Converter.sol:Converter",
        "label": "factory",
        "offset": 0,
        "slot": "310",
        "type": "t_contract(IUnicFactory)37497"
      }
    ],
    "types": {
      "t_address": {
        "encoding": "inplace",
        "label": "address",
        "numberOfBytes": "20"
      },
      "t_array(t_uint256)44_storage": {
        "base": "t_uint256",
        "encoding": "inplace",
        "label": "uint256[44]",
        "numberOfBytes": "1408"
      },
      "t_array(t_uint256)49_storage": {
        "base": "t_uint256",
        "encoding": "inplace",
        "label": "uint256[49]",
        "numberOfBytes": "1568"
      },
      "t_array(t_uint256)50_storage": {
        "base": "t_uint256",
        "encoding": "inplace",
        "label": "uint256[50]",
        "numberOfBytes": "1600"
      },
      "t_bool": {
        "encoding": "inplace",
        "label": "bool",
        "numberOfBytes": "1"
      },
      "t_bytes4": {
        "encoding": "inplace",
        "label": "bytes4",
        "numberOfBytes": "4"
      },
      "t_contract(IUnicFactory)37497": {
        "encoding": "inplace",
        "label": "contract IUnicFactory",
        "numberOfBytes": "20"
      },
      "t_mapping(t_address,t_address)": {
        "encoding": "mapping",
        "key": "t_address",
        "label": "mapping(address => address)",
        "numberOfBytes": "32",
        "value": "t_address"
      },
      "t_mapping(t_address,t_mapping(t_address,t_uint256))": {
        "encoding": "mapping",
        "key": "t_address",
        "label": "mapping(address => mapping(address => uint256))",
        "numberOfBytes": "32",
        "value": "t_mapping(t_address,t_uint256)"
      },
      "t_mapping(t_address,t_mapping(t_uint32,t_struct(Checkpoint)36615_storage))": {
        "encoding": "mapping",
        "key": "t_address",
        "label": "mapping(address => mapping(uint32 => struct ERC20VotesUpgradeable.Checkpoint))",
        "numberOfBytes": "32",
        "value": "t_mapping(t_uint32,t_struct(Checkpoint)36615_storage)"
      },
      "t_mapping(t_address,t_uint256)": {
        "encoding": "mapping",
        "key": "t_address",
        "label": "mapping(address => uint256)",
        "numberOfBytes": "32",
        "value": "t_uint256"
      },
      "t_mapping(t_address,t_uint32)": {
        "encoding": "mapping",
        "key": "t_address",
        "label": "mapping(address => uint32)",
        "numberOfBytes": "32",
        "value": "t_uint32"
      },
      "t_mapping(t_bytes4,t_bool)": {
        "encoding": "mapping",
        "key": "t_bytes4",
        "label": "mapping(bytes4 => bool)",
        "numberOfBytes": "32",
        "value": "t_bool"
      },
      "t_mapping(t_uint256,t_struct(NFT)9546_storage)": {
        "encoding": "mapping",
        "key": "t_uint256",
        "label": "mapping(uint256 => struct Converter.NFT)",
        "numberOfBytes": "32",
        "value": "t_struct(NFT)9546_storage"
      },
      "t_mapping(t_uint32,t_struct(Checkpoint)36615_storage)": {
        "encoding": "mapping",
        "key": "t_uint32",
        "label": "mapping(uint32 => struct ERC20VotesUpgradeable.Checkpoint)",
        "numberOfBytes": "32",
        "value": "t_struct(Checkpoint)36615_storage"
      },
      "t_string_storage": {
        "encoding": "bytes",
        "label": "string",
        "numberOfBytes": "32"
      },
      "t_struct(Checkpoint)36615_storage": {
        "encoding": "inplace",
        "label": "struct ERC20VotesUpgradeable.Checkpoint",
        "members": [
          {
            "astId": 36612,
            "contract": "contracts/Converter.sol:Converter",
            "label": "fromBlock",
            "offset": 0,
            "slot": "0",
            "type": "t_uint32"
          },
          {
            "astId": 36614,
            "contract": "contracts/Converter.sol:Converter",
            "label": "votes",
            "offset": 0,
            "slot": "1",
            "type": "t_uint256"
          }
        ],
        "numberOfBytes": "64"
      },
      "t_struct(NFT)9546_storage": {
        "encoding": "inplace",
        "label": "struct Converter.NFT",
        "members": [
          {
            "astId": 9539,
            "contract": "contracts/Converter.sol:Converter",
            "label": "contractAddr",
            "offset": 0,
            "slot": "0",
            "type": "t_address"
          },
          {
            "astId": 9541,
            "contract": "contracts/Converter.sol:Converter",
            "label": "tokenId",
            "offset": 0,
            "slot": "1",
            "type": "t_uint256"
          },
          {
            "astId": 9543,
            "contract": "contracts/Converter.sol:Converter",
            "label": "amount",
            "offset": 0,
            "slot": "2",
            "type": "t_uint256"
          },
          {
            "astId": 9545,
            "contract": "contracts/Converter.sol:Converter",
            "label": "triggerPrice",
            "offset": 0,
            "slot": "3",
            "type": "t_uint256"
          }
        ],
        "numberOfBytes": "128"
      },
      "t_uint256": {
        "encoding": "inplace",
        "label": "uint256",
        "numberOfBytes": "32"
      },
      "t_uint32": {
        "encoding": "inplace",
        "label": "uint32",
        "numberOfBytes": "4"
      },
      "t_uint8": {
        "encoding": "inplace",
        "label": "uint8",
        "numberOfBytes": "1"
      }
    }
  }
}