{
  "address": "0x4AC86d120d8Fa8A1c6F09F5ab502Fe26c48EF0bc",
  "abi": [
    {
      "anonymous": false,
      "inputs": [
        {
          "indexed": true,
          "internalType": "address",
          "name": "previousOwner",
          "type": "address"
        },
        {
          "indexed": true,
          "internalType": "address",
          "name": "newOwner",
          "type": "address"
        }
      ],
      "name": "OwnershipTransferred",
      "type": "event"
    },
    {
      "anonymous": false,
      "inputs": [
        {
          "indexed": true,
          "internalType": "address",
          "name": "caller",
          "type": "address"
        },
        {
          "indexed": true,
          "internalType": "address",
          "name": "uToken",
          "type": "address"
        }
      ],
      "name": "TokenCreated",
      "type": "event"
    },
    {
      "inputs": [],
      "name": "auctionHandler",
      "outputs": [
        {
          "internalType": "address",
          "name": "",
          "type": "address"
        }
      ],
      "stateMutability": "view",
      "type": "function"
    },
    {
      "inputs": [],
      "name": "converterImplementation",
      "outputs": [
        {
          "internalType": "address",
          "name": "",
          "type": "address"
        }
      ],
      "stateMutability": "view",
      "type": "function"
    },
    {
      "inputs": [
        {
          "internalType": "string",
          "name": "name",
          "type": "string"
        },
        {
          "internalType": "string",
          "name": "symbol",
          "type": "string"
        },
        {
          "internalType": "address",
          "name": "proxyTransactionFactory",
          "type": "address"
        },
        {
          "internalType": "bool",
          "name": "enableProxyTransactions",
          "type": "bool"
        }
      ],
      "name": "createUToken",
      "outputs": [
        {
          "internalType": "address",
          "name": "",
          "type": "address"
        },
        {
          "internalType": "address",
          "name": "",
          "type": "address"
        }
      ],
      "stateMutability": "nonpayable",
      "type": "function"
    },
    {
      "inputs": [
        {
          "internalType": "address",
          "name": "_logic",
          "type": "address"
        },
        {
          "internalType": "bytes",
          "name": "_data",
          "type": "bytes"
        }
      ],
      "name": "deployMinimal",
      "outputs": [
        {
          "internalType": "address",
          "name": "proxy",
          "type": "address"
        }
      ],
      "stateMutability": "nonpayable",
      "type": "function"
    },
    {
      "inputs": [],
      "name": "feeDivisor",
      "outputs": [
        {
          "internalType": "uint256",
          "name": "",
          "type": "uint256"
        }
      ],
      "stateMutability": "view",
      "type": "function"
    },
    {
      "inputs": [],
      "name": "feeTo",
      "outputs": [
        {
          "internalType": "address",
          "name": "",
          "type": "address"
        }
      ],
      "stateMutability": "view",
      "type": "function"
    },
    {
      "inputs": [],
      "name": "feeToSetter",
      "outputs": [
        {
          "internalType": "address",
          "name": "",
          "type": "address"
        }
      ],
      "stateMutability": "view",
      "type": "function"
    },
    {
      "inputs": [
        {
          "internalType": "address",
          "name": "",
          "type": "address"
        }
      ],
      "name": "getGovernorAlpha",
      "outputs": [
        {
          "internalType": "address",
          "name": "",
          "type": "address"
        }
      ],
      "stateMutability": "view",
      "type": "function"
    },
    {
      "inputs": [
        {
          "internalType": "address",
          "name": "",
          "type": "address"
        }
      ],
      "name": "getUToken",
      "outputs": [
        {
          "internalType": "uint256",
          "name": "",
          "type": "uint256"
        }
      ],
      "stateMutability": "view",
      "type": "function"
    },
    {
      "inputs": [
        {
          "internalType": "address",
          "name": "_feeToSetter",
          "type": "address"
        },
        {
          "internalType": "uint256",
          "name": "_feeDivisor",
          "type": "uint256"
        },
        {
          "internalType": "uint256",
          "name": "_uTokenSupply",
          "type": "uint256"
        }
      ],
      "name": "initialize",
      "outputs": [],
      "stateMutability": "nonpayable",
      "type": "function"
    },
    {
      "inputs": [],
      "name": "owner",
      "outputs": [
        {
          "internalType": "address",
          "name": "",
          "type": "address"
        }
      ],
      "stateMutability": "view",
      "type": "function"
    },
    {
      "inputs": [],
      "name": "renounceOwnership",
      "outputs": [],
      "stateMutability": "nonpayable",
      "type": "function"
    },
    {
      "inputs": [
        {
          "internalType": "address",
          "name": "_auctionHandler",
          "type": "address"
        }
      ],
      "name": "setAuctionHandler",
      "outputs": [],
      "stateMutability": "nonpayable",
      "type": "function"
    },
    {
      "inputs": [
        {
          "internalType": "address",
          "name": "_converterImplementation",
          "type": "address"
        }
      ],
      "name": "setConverterImplementation",
      "outputs": [],
      "stateMutability": "nonpayable",
      "type": "function"
    },
    {
      "inputs": [
        {
          "internalType": "uint256",
          "name": "_feeDivisor",
          "type": "uint256"
        }
      ],
      "name": "setFeeDivisor",
      "outputs": [],
      "stateMutability": "nonpayable",
      "type": "function"
    },
    {
      "inputs": [
        {
          "internalType": "address",
          "name": "_feeTo",
          "type": "address"
        }
      ],
      "name": "setFeeTo",
      "outputs": [],
      "stateMutability": "nonpayable",
      "type": "function"
    },
    {
      "inputs": [
        {
          "internalType": "address",
          "name": "_feeToSetter",
          "type": "address"
        }
      ],
      "name": "setFeeToSetter",
      "outputs": [],
      "stateMutability": "nonpayable",
      "type": "function"
    },
    {
      "inputs": [
        {
          "internalType": "uint256",
          "name": "_uTokenSupply",
          "type": "uint256"
        }
      ],
      "name": "setSupply",
      "outputs": [],
      "stateMutability": "nonpayable",
      "type": "function"
    },
    {
      "inputs": [
        {
          "internalType": "address",
          "name": "_vaultManager",
          "type": "address"
        }
      ],
      "name": "setVaultManager",
      "outputs": [],
      "stateMutability": "nonpayable",
      "type": "function"
    },
    {
      "inputs": [
        {
          "internalType": "address",
          "name": "newOwner",
          "type": "address"
        }
      ],
      "name": "transferOwnership",
      "outputs": [],
      "stateMutability": "nonpayable",
      "type": "function"
    },
    {
      "inputs": [],
      "name": "uTokenSupply",
      "outputs": [
        {
          "internalType": "uint256",
          "name": "",
          "type": "uint256"
        }
      ],
      "stateMutability": "view",
      "type": "function"
    },
    {
      "inputs": [
        {
          "internalType": "uint256",
          "name": "",
          "type": "uint256"
        }
      ],
      "name": "uTokens",
      "outputs": [
        {
          "internalType": "address",
          "name": "",
          "type": "address"
        }
      ],
      "stateMutability": "view",
      "type": "function"
    },
    {
      "inputs": [],
      "name": "uTokensLength",
      "outputs": [
        {
          "internalType": "uint256",
          "name": "",
          "type": "uint256"
        }
      ],
      "stateMutability": "view",
      "type": "function"
    },
    {
      "inputs": [],
      "name": "vaultManager",
      "outputs": [
        {
          "internalType": "address",
          "name": "",
          "type": "address"
        }
      ],
      "stateMutability": "view",
      "type": "function"
    }
  ],
  "transactionHash": "0x5f710fe1f51951da1df742ef81f4aefc088a7ec5ecec5276f412492ce47f44a4",
  "args": [],
  "numDeployments": 1,
  "solcInputHash": "ad24d1ed3bf060a5361c51d754aec405",
  "bytecode": "0x608060405234801561001057600080fd5b5061145c806100206000396000f3fe608060405234801561001057600080fd5b50600436106101985760003560e01c8063742ed75a116100e3578063a2e74af61161008c578063b543503e11610066578063b543503e1461051c578063f2fde38b14610542578063f46901ed1461056857610198565b8063a2e74af61461041a578063ae22c8e414610440578063b3eeb5e21461046657610198565b80638a4adf24116100bd5780638a4adf24146104025780638da5cb5b1461040a5780639a36f9321461041257610198565b8063742ed75a146103c0578063762ca1c8146103c85780637a1ac61e146103d057610198565b80633b4c4b25116101455780635f47f8621161011f5780635f47f8621461038a57806369acf34c146103b0578063715018a6146103b857610198565b80633b4c4b25146103485780633c402de914610365578063404b291c1461038257610198565b80631899366e116101765780631899366e146101e857806325b26df61461020e578063399f4ce61461024657610198565b8063017e7e581461019d578063043531b1146101c1578063094b7415146101e0575b600080fd5b6101a561058e565b604080516001600160a01b039092168252519081900360200190f35b6101de600480360360208110156101d757600080fd5b503561059d565b005b6101a5610616565b6101a5600480360360208110156101fe57600080fd5b50356001600160a01b0316610625565b6102346004803603602081101561022457600080fd5b50356001600160a01b0316610640565b60408051918252519081900360200190f35b6103196004803603608081101561025c57600080fd5b81019060208101813564010000000081111561027757600080fd5b82018360208201111561028957600080fd5b803590602001918460018302840111640100000000831117156102ab57600080fd5b9193909290916020810190356401000000008111156102c957600080fd5b8201836020820111156102db57600080fd5b803590602001918460018302840111640100000000831117156102fd57600080fd5b91935091506001600160a01b0381351690602001351515610652565b60405180836001600160a01b03168152602001826001600160a01b031681526020019250505060405180910390f35b6101de6004803603602081101561035e57600080fd5b50356109df565b6101a56004803603602081101561037b57600080fd5b5035610a58565b610234610a7f565b6101de600480360360208110156103a057600080fd5b50356001600160a01b0316610a85565b6101a5610b1b565b6101de610b2a565b6101a5610be8565b610234610bf7565b6101de600480360360608110156103e657600080fd5b506001600160a01b038135169060208101359060400135610bfd565b6101a5610cdd565b6101a5610cec565b610234610cfb565b6101de6004803603602081101561043057600080fd5b50356001600160a01b0316610d01565b6101de6004803603602081101561045657600080fd5b50356001600160a01b0316610d82565b6101a56004803603604081101561047c57600080fd5b6001600160a01b0382351691908101906040810160208201356401000000008111156104a757600080fd5b8201836020820111156104b957600080fd5b803590602001918460018302840111640100000000831117156104db57600080fd5b91908080601f016020809104026020016040519081016040528093929190818152602001838380828437600092019190915250929550610e18945050505050565b6101de6004803603602081101561053257600080fd5b50356001600160a01b0316610f40565b6101de6004803603602081101561055857600080fd5b50356001600160a01b0316610fd6565b6101de6004803603602081101561057e57600080fd5b50356001600160a01b03166110eb565b6065546001600160a01b031681565b6105a561116c565b6001600160a01b03166105b6610cec565b6001600160a01b031614610611576040805162461bcd60e51b815260206004820181905260248201527f4f776e61626c653a2063616c6c6572206973206e6f7420746865206f776e6572604482015290519081900360640190fd5b606b55565b6067546001600160a01b031681565b606e602052600090815260409020546001600160a01b031681565b606d6020526000908152604090205481565b600080602087106106aa576040805162461bcd60e51b815260206004820152601560248201527f556e6963466163746f72793a204d4158204e414d450000000000000000000000604482015290519081900360640190fd5b601085106106ff576040805162461bcd60e51b815260206004820152601760248201527f556e6963466163746f72793a204d4158205449434b4552000000000000000000604482015290519081900360640190fd5b6066546040513360648201819052306084830181905260806024840190815260a484018c905291936000936107f2936001600160a01b03909216928e928e928e928e928a928190604481019060c401898980828437600083820152601f01601f19169091018481038352878152602001905087878082843760008184015260408051601f19601f9093018316909401848103909201845252506020810180517f8f15b414000000000000000000000000000000000000000000000000000000007bffffffffffffffffffffffffffffffffffffffffffffffffffffffff9091161790529850610e18975050505050505050565b90506000851561094b57604080517f1fe32adf0000000000000000000000000000000000000000000000000000000081526001600160a01b03848116600483015285811660248301528251600093918b1692631fe32adf92604480830193919282900301818787803b15801561086757600080fd5b505af115801561087b573d6000803e3d6000fd5b505050506040513d604081101561089157600080fd5b508051602090910151604080517f717ce0c10000000000000000000000000000000000000000000000000000000081526001600160a01b038084166004830152915193955091935085169163717ce0c19160248082019260009290919082900301818387803b15801561090357600080fd5b505af1158015610917573d6000803e3d6000fd5b505050506001600160a01b038381166000908152606e6020526040902080546001600160a01b031916918416919091179055505b606880546001600160a01b0384166000818152606d60205260408082208490556001840185559381527fa2153420d844928b4421650203c77babc8b33d7f2e7b450e2966db0c2209775390920180546001600160a01b03191682179055915133917fd5f9bdf12adf29dab0248c349842c3822d53ae2bb4f36352f301630d018c813991a3909a909950975050505050505050565b6109e761116c565b6001600160a01b03166109f8610cec565b6001600160a01b031614610a53576040805162461bcd60e51b815260206004820181905260248201527f4f776e61626c653a2063616c6c6572206973206e6f7420746865206f776e6572604482015290519081900360640190fd5b606c55565b60688181548110610a6557fe5b6000918252602090912001546001600160a01b0316905081565b60685490565b610a8d61116c565b6001600160a01b0316610a9e610cec565b6001600160a01b031614610af9576040805162461bcd60e51b815260206004820181905260248201527f4f776e61626c653a2063616c6c6572206973206e6f7420746865206f776e6572604482015290519081900360640190fd5b606680546001600160a01b0319166001600160a01b0392909216919091179055565b6069546001600160a01b031681565b610b3261116c565b6001600160a01b0316610b43610cec565b6001600160a01b031614610b9e576040805162461bcd60e51b815260206004820181905260248201527f4f776e61626c653a2063616c6c6572206973206e6f7420746865206f776e6572604482015290519081900360640190fd5b6033546040516000916001600160a01b0316907f8be0079c531659141344cd1fd0a4f28419497f9722a3daafe3b4186f6b6457e0908390a3603380546001600160a01b0319169055565b6066546001600160a01b031681565b606c5481565b600054610100900460ff1680610c165750610c16611170565b80610c24575060005460ff16155b610c5f5760405162461bcd60e51b815260040180806020018281038252602e8152602001806113f9602e913960400191505060405180910390fd5b600054610100900460ff16158015610c8a576000805460ff1961ff0019909116610100171660011790555b610c92611181565b606780546001600160a01b0386166001600160a01b031991821617909155606b849055606a805490911633179055606c8290558015610cd7576000805461ff00191690555b50505050565b606a546001600160a01b031681565b6033546001600160a01b031690565b606b5481565b6067546001600160a01b03163314610d60576040805162461bcd60e51b815260206004820152600f60248201527f556e69633a20464f5242494444454e0000000000000000000000000000000000604482015290519081900360640190fd5b606780546001600160a01b0319166001600160a01b0392909216919091179055565b610d8a61116c565b6001600160a01b0316610d9b610cec565b6001600160a01b031614610df6576040805162461bcd60e51b815260206004820181905260248201527f4f776e61626c653a2063616c6c6572206973206e6f7420746865206f776e6572604482015290519081900360640190fd5b606980546001600160a01b0319166001600160a01b0392909216919091179055565b6000808360601b90506040517f3d602d80600a3d3981f3363d3d373d3d3d363d7300000000000000000000000081528160148201527f5af43d82803e903d91602b57fd5bf3000000000000000000000000000000000060288201526037816000f0925050600083511115610f39576000826001600160a01b0316846040518082805190602001908083835b60208310610ec25780518252601f199092019160209182019101610ea3565b6001836020036101000a0380198251168184511680821785525050505050509050019150506000604051808303816000865af19150503d8060008114610f24576040519150601f19603f3d011682016040523d82523d6000602084013e610f29565b606091505b5050905080610f3757600080fd5b505b5092915050565b610f4861116c565b6001600160a01b0316610f59610cec565b6001600160a01b031614610fb4576040805162461bcd60e51b815260206004820181905260248201527f4f776e61626c653a2063616c6c6572206973206e6f7420746865206f776e6572604482015290519081900360640190fd5b606a80546001600160a01b0319166001600160a01b0392909216919091179055565b610fde61116c565b6001600160a01b0316610fef610cec565b6001600160a01b03161461104a576040805162461bcd60e51b815260206004820181905260248201527f4f776e61626c653a2063616c6c6572206973206e6f7420746865206f776e6572604482015290519081900360640190fd5b6001600160a01b03811661108f5760405162461bcd60e51b81526004018080602001828103825260268152602001806113d36026913960400191505060405180910390fd5b6033546040516001600160a01b038084169216907f8be0079c531659141344cd1fd0a4f28419497f9722a3daafe3b4186f6b6457e090600090a3603380546001600160a01b0319166001600160a01b0392909216919091179055565b6067546001600160a01b0316331461114a576040805162461bcd60e51b815260206004820152600f60248201527f556e69633a20464f5242494444454e0000000000000000000000000000000000604482015290519081900360640190fd5b606580546001600160a01b0319166001600160a01b0392909216919091179055565b3390565b600061117b30611233565b15905090565b600054610100900460ff168061119a575061119a611170565b806111a8575060005460ff16155b6111e35760405162461bcd60e51b815260040180806020018281038252602e8152602001806113f9602e913960400191505060405180910390fd5b600054610100900460ff1615801561120e576000805460ff1961ff0019909116610100171660011790555b611216611239565b61121e6112d9565b8015611230576000805461ff00191690555b50565b3b151590565b600054610100900460ff16806112525750611252611170565b80611260575060005460ff16155b61129b5760405162461bcd60e51b815260040180806020018281038252602e8152602001806113f9602e913960400191505060405180910390fd5b600054610100900460ff1615801561121e576000805460ff1961ff0019909116610100171660011790558015611230576000805461ff001916905550565b600054610100900460ff16806112f257506112f2611170565b80611300575060005460ff16155b61133b5760405162461bcd60e51b815260040180806020018281038252602e8152602001806113f9602e913960400191505060405180910390fd5b600054610100900460ff16158015611366576000805460ff1961ff0019909116610100171660011790555b600061137061116c565b603380546001600160a01b0319166001600160a01b038316908117909155604051919250906000907f8be0079c531659141344cd1fd0a4f28419497f9722a3daafe3b4186f6b6457e0908290a3508015611230576000805461ff00191690555056fe4f776e61626c653a206e6577206f776e657220697320746865207a65726f2061646472657373496e697469616c697a61626c653a20636f6e747261637420697320616c726561647920696e697469616c697a6564a26469706673582212206a7053709f00468cde2f21a15d4d604c864d1bf28add2fff10bfd3eef17252cb64736f6c634300060c0033",
  "devdoc": {
    "kind": "dev",
    "methods": {
      "owner()": {
        "details": "Returns the address of the current owner."
      },
      "renounceOwnership()": {
        "details": "Leaves the contract without owner. It will not be possible to call `onlyOwner` functions anymore. Can only be called by the current owner. NOTE: Renouncing ownership will leave the contract without an owner, thereby removing any functionality that is only available to the owner."
      },
      "transferOwnership(address)": {
        "details": "Transfers ownership of the contract to a new account (`newOwner`). Can only be called by the current owner."
      }
    },
    "version": 1
  },
  "userdoc": {
    "kind": "user",
    "methods": {},
    "version": 1
  },
  "storageLayout": {
    "storage": [
      {
        "astId": 807,
        "contract": "contracts/UnicFactory.sol:UnicFactory",
        "label": "_initialized",
        "offset": 0,
        "slot": "0",
        "type": "t_bool"
      },
      {
        "astId": 810,
        "contract": "contracts/UnicFactory.sol:UnicFactory",
        "label": "_initializing",
        "offset": 1,
        "slot": "0",
        "type": "t_bool"
      },
      {
        "astId": 2393,
        "contract": "contracts/UnicFactory.sol:UnicFactory",
        "label": "__gap",
        "offset": 0,
        "slot": "1",
        "type": "t_array(t_uint256)50_storage"
      },
      {
        "astId": 10,
        "contract": "contracts/UnicFactory.sol:UnicFactory",
        "label": "_owner",
        "offset": 0,
        "slot": "51",
        "type": "t_address"
      },
      {
        "astId": 129,
        "contract": "contracts/UnicFactory.sol:UnicFactory",
        "label": "__gap",
        "offset": 0,
        "slot": "52",
        "type": "t_array(t_uint256)49_storage"
      },
      {
        "astId": 17961,
        "contract": "contracts/UnicFactory.sol:UnicFactory",
        "label": "feeTo",
        "offset": 0,
        "slot": "101",
        "type": "t_address"
      },
      {
        "astId": 17964,
        "contract": "contracts/UnicFactory.sol:UnicFactory",
        "label": "converterImplementation",
        "offset": 0,
        "slot": "102",
        "type": "t_address"
      },
      {
        "astId": 17967,
        "contract": "contracts/UnicFactory.sol:UnicFactory",
        "label": "feeToSetter",
        "offset": 0,
        "slot": "103",
        "type": "t_address"
      },
      {
        "astId": 17971,
        "contract": "contracts/UnicFactory.sol:UnicFactory",
        "label": "uTokens",
        "offset": 0,
        "slot": "104",
        "type": "t_array(t_address)dyn_storage"
      },
      {
        "astId": 17974,
        "contract": "contracts/UnicFactory.sol:UnicFactory",
        "label": "auctionHandler",
        "offset": 0,
        "slot": "105",
        "type": "t_address"
      },
      {
        "astId": 17977,
        "contract": "contracts/UnicFactory.sol:UnicFactory",
        "label": "vaultManager",
        "offset": 0,
        "slot": "106",
        "type": "t_address"
      },
      {
        "astId": 17980,
        "contract": "contracts/UnicFactory.sol:UnicFactory",
        "label": "feeDivisor",
        "offset": 0,
        "slot": "107",
        "type": "t_uint256"
      },
      {
        "astId": 17983,
        "contract": "contracts/UnicFactory.sol:UnicFactory",
        "label": "uTokenSupply",
        "offset": 0,
        "slot": "108",
        "type": "t_uint256"
      },
      {
        "astId": 17988,
        "contract": "contracts/UnicFactory.sol:UnicFactory",
        "label": "getUToken",
        "offset": 0,
        "slot": "109",
        "type": "t_mapping(t_address,t_uint256)"
      },
      {
        "astId": 17993,
        "contract": "contracts/UnicFactory.sol:UnicFactory",
        "label": "getGovernorAlpha",
        "offset": 0,
        "slot": "110",
        "type": "t_mapping(t_address,t_address)"
      }
    ],
    "types": {
      "t_address": {
        "encoding": "inplace",
        "label": "address",
        "numberOfBytes": "20"
      },
      "t_array(t_address)dyn_storage": {
        "base": "t_address",
        "encoding": "dynamic_array",
        "label": "address[]",
        "numberOfBytes": "32"
      },
      "t_array(t_uint256)49_storage": {
        "base": "t_uint256",
        "encoding": "inplace",
        "label": "uint256[49]",
        "numberOfBytes": "1568"
      },
      "t_array(t_uint256)50_storage": {
        "base": "t_uint256",
        "encoding": "inplace",
        "label": "uint256[50]",
        "numberOfBytes": "1600"
      },
      "t_bool": {
        "encoding": "inplace",
        "label": "bool",
        "numberOfBytes": "1"
      },
      "t_mapping(t_address,t_address)": {
        "encoding": "mapping",
        "key": "t_address",
        "label": "mapping(address => address)",
        "numberOfBytes": "32",
        "value": "t_address"
      },
      "t_mapping(t_address,t_uint256)": {
        "encoding": "mapping",
        "key": "t_address",
        "label": "mapping(address => uint256)",
        "numberOfBytes": "32",
        "value": "t_uint256"
      },
      "t_uint256": {
        "encoding": "inplace",
        "label": "uint256",
        "numberOfBytes": "32"
      }
    }
  }
}